{
	"contracts/SepoliaPortal.sol": {
		"SepoliaPortal": {
			"abi": [
				{
					"inputs": [
						{
							"internalType": "address",
							"name": "_token",
							"type": "address"
						}
					],
					"stateMutability": "nonpayable",
					"type": "constructor"
				},
				{
					"anonymous": false,
					"inputs": [
						{
							"indexed": false,
							"internalType": "address",
							"name": "sender",
							"type": "address"
						},
						{
							"indexed": false,
							"internalType": "address",
							"name": "receiver",
							"type": "address"
						},
						{
							"indexed": false,
							"internalType": "uint256",
							"name": "tokenAmount",
							"type": "uint256"
						},
						{
							"indexed": false,
							"internalType": "uint256",
							"name": "timestamp",
							"type": "uint256"
						},
						{
							"indexed": false,
							"internalType": "uint256",
							"name": "nonce",
							"type": "uint256"
						},
						{
							"indexed": false,
							"internalType": "bytes",
							"name": "signature",
							"type": "bytes"
						},
						{
							"indexed": true,
							"internalType": "enum CrossChainBridge.Process",
							"name": "status",
							"type": "uint8"
						}
					],
					"name": "CrossTransfer",
					"type": "event"
				},
				{
					"anonymous": false,
					"inputs": [
						{
							"indexed": true,
							"internalType": "address",
							"name": "previousOwner",
							"type": "address"
						},
						{
							"indexed": true,
							"internalType": "address",
							"name": "newOwner",
							"type": "address"
						}
					],
					"name": "OwnershipTransferred",
					"type": "event"
				},
				{
					"inputs": [],
					"name": "admin",
					"outputs": [
						{
							"internalType": "address",
							"name": "",
							"type": "address"
						}
					],
					"stateMutability": "view",
					"type": "function"
				},
				{
					"inputs": [
						{
							"internalType": "uint256",
							"name": "amount",
							"type": "uint256"
						},
						{
							"internalType": "uint256",
							"name": "crossChainNonce",
							"type": "uint256"
						},
						{
							"internalType": "bytes",
							"name": "signature",
							"type": "bytes"
						}
					],
					"name": "burn",
					"outputs": [],
					"stateMutability": "nonpayable",
					"type": "function"
				},
				{
					"inputs": [
						{
							"internalType": "address",
							"name": "sender",
							"type": "address"
						},
						{
							"internalType": "address",
							"name": "receiver",
							"type": "address"
						},
						{
							"internalType": "uint256",
							"name": "amount",
							"type": "uint256"
						},
						{
							"internalType": "uint256",
							"name": "crossChainNonce",
							"type": "uint256"
						},
						{
							"internalType": "bytes",
							"name": "signature",
							"type": "bytes"
						}
					],
					"name": "mint",
					"outputs": [],
					"stateMutability": "nonpayable",
					"type": "function"
				},
				{
					"inputs": [],
					"name": "nonce",
					"outputs": [
						{
							"internalType": "uint256",
							"name": "",
							"type": "uint256"
						}
					],
					"stateMutability": "view",
					"type": "function"
				},
				{
					"inputs": [],
					"name": "owner",
					"outputs": [
						{
							"internalType": "address",
							"name": "",
							"type": "address"
						}
					],
					"stateMutability": "view",
					"type": "function"
				},
				{
					"inputs": [
						{
							"internalType": "address",
							"name": "",
							"type": "address"
						},
						{
							"internalType": "uint256",
							"name": "",
							"type": "uint256"
						}
					],
					"name": "processedNonces",
					"outputs": [
						{
							"internalType": "bool",
							"name": "",
							"type": "bool"
						}
					],
					"stateMutability": "view",
					"type": "function"
				},
				{
					"inputs": [],
					"name": "renounceOwnership",
					"outputs": [],
					"stateMutability": "nonpayable",
					"type": "function"
				},
				{
					"inputs": [],
					"name": "token",
					"outputs": [
						{
							"internalType": "contract ICrossToken",
							"name": "",
							"type": "address"
						}
					],
					"stateMutability": "view",
					"type": "function"
				},
				{
					"inputs": [
						{
							"internalType": "address",
							"name": "newOwner",
							"type": "address"
						}
					],
					"name": "transferOwnership",
					"outputs": [],
					"stateMutability": "nonpayable",
					"type": "function"
				}
			],
			"devdoc": {
				"kind": "dev",
				"methods": {
					"owner()": {
						"details": "Returns the address of the current owner."
					},
					"renounceOwnership()": {
						"details": "Leaves the contract without owner. It will not be possible to call `onlyOwner` functions. Can only be called by the current owner. NOTE: Renouncing ownership will leave the contract without an owner, thereby disabling any functionality that is only available to the owner."
					},
					"transferOwnership(address)": {
						"details": "Transfers ownership of the contract to a new account (`newOwner`). Can only be called by the current owner."
					}
				},
				"version": 1
			},
			"evm": {
				"assembly": "    /* \"contracts/SepoliaPortal.sol\":110:217  contract SepoliaPortal is CrossChainBridge {... */\n  mstore(0x40, 0x80)\n    /* \"contracts/SepoliaPortal.sol\":159:215  constructor (address _token) CrossChainBridge(_token) {} */\n  callvalue\n  dup1\n  iszero\n  tag_1\n  jumpi\n  0x00\n  dup1\n  revert\ntag_1:\n  pop\n  mload(0x40)\n  sub(codesize, bytecodeSize)\n  dup1\n  bytecodeSize\n  dup4\n  codecopy\n  dup2\n  dup2\n  add\n  0x40\n  mstore\n  dup2\n  add\n  swap1\n  tag_2\n  swap2\n  swap1\n  tag_3\n  jump\t// in\ntag_2:\n    /* \"contracts/SepoliaPortal.sol\":205:211  _token */\n  dup1\n    /* \"@openzeppelin/contracts/access/Ownable.sol\":936:968  _transferOwnership(_msgSender()) */\n  tag_8\n    /* \"@openzeppelin/contracts/access/Ownable.sol\":955:967  _msgSender() */\n  tag_9\n    /* \"@openzeppelin/contracts/access/Ownable.sol\":955:965  _msgSender */\n  shl(0x20, tag_10)\n    /* \"@openzeppelin/contracts/access/Ownable.sol\":955:967  _msgSender() */\n  0x20\n  shr\n  jump\t// in\ntag_9:\n    /* \"@openzeppelin/contracts/access/Ownable.sol\":936:954  _transferOwnership */\n  shl(0x20, tag_11)\n    /* \"@openzeppelin/contracts/access/Ownable.sol\":936:968  _transferOwnership(_msgSender()) */\n  0x20\n  shr\n  jump\t// in\ntag_8:\n    /* \"contracts/CrossBridge.sol\":785:795  msg.sender */\n  caller\n    /* \"contracts/CrossBridge.sol\":777:782  admin */\n  0x01\n  0x00\n    /* \"contracts/CrossBridge.sol\":777:795  admin = msg.sender */\n  0x0100\n  exp\n  dup2\n  sload\n  dup2\n  0xffffffffffffffffffffffffffffffffffffffff\n  mul\n  not\n  and\n  swap1\n  dup4\n  0xffffffffffffffffffffffffffffffffffffffff\n  and\n  mul\n  or\n  swap1\n  sstore\n  pop\n    /* \"contracts/CrossBridge.sol\":825:831  _token */\n  dup1\n    /* \"contracts/CrossBridge.sol\":805:810  token */\n  0x02\n  0x00\n    /* \"contracts/CrossBridge.sol\":805:832  token = ICrossToken(_token) */\n  0x0100\n  exp\n  dup2\n  sload\n  dup2\n  0xffffffffffffffffffffffffffffffffffffffff\n  mul\n  not\n  and\n  swap1\n  dup4\n  0xffffffffffffffffffffffffffffffffffffffff\n  and\n  mul\n  or\n  swap1\n  sstore\n  pop\n    /* \"contracts/CrossBridge.sol\":739:839  constructor (address _token){... */\n  pop\n    /* \"contracts/SepoliaPortal.sol\":159:215  constructor (address _token) CrossChainBridge(_token) {} */\n  pop\n    /* \"contracts/SepoliaPortal.sol\":110:217  contract SepoliaPortal is CrossChainBridge {... */\n  jump(tag_14)\n    /* \"@openzeppelin/contracts/utils/Context.sol\":655:751  function _msgSender() internal view virtual returns (address) {... */\ntag_10:\n    /* \"@openzeppelin/contracts/utils/Context.sol\":708:715  address */\n  0x00\n    /* \"@openzeppelin/contracts/utils/Context.sol\":734:744  msg.sender */\n  caller\n    /* \"@openzeppelin/contracts/utils/Context.sol\":727:744  return msg.sender */\n  swap1\n  pop\n    /* \"@openzeppelin/contracts/utils/Context.sol\":655:751  function _msgSender() internal view virtual returns (address) {... */\n  swap1\n  jump\t// out\n    /* \"@openzeppelin/contracts/access/Ownable.sol\":2426:2613  function _transferOwnership(address newOwner) internal virtual {... */\ntag_11:\n    /* \"@openzeppelin/contracts/access/Ownable.sol\":2499:2515  address oldOwner */\n  0x00\n    /* \"@openzeppelin/contracts/access/Ownable.sol\":2518:2524  _owner */\n  dup1\n  0x00\n  swap1\n  sload\n  swap1\n  0x0100\n  exp\n  swap1\n  div\n  0xffffffffffffffffffffffffffffffffffffffff\n  and\n    /* \"@openzeppelin/contracts/access/Ownable.sol\":2499:2524  address oldOwner = _owner */\n  swap1\n  pop\n    /* \"@openzeppelin/contracts/access/Ownable.sol\":2543:2551  newOwner */\n  dup2\n    /* \"@openzeppelin/contracts/access/Ownable.sol\":2534:2540  _owner */\n  0x00\n  dup1\n    /* \"@openzeppelin/contracts/access/Ownable.sol\":2534:2551  _owner = newOwner */\n  0x0100\n  exp\n  dup2\n  sload\n  dup2\n  0xffffffffffffffffffffffffffffffffffffffff\n  mul\n  not\n  and\n  swap1\n  dup4\n  0xffffffffffffffffffffffffffffffffffffffff\n  and\n  mul\n  or\n  swap1\n  sstore\n  pop\n    /* \"@openzeppelin/contracts/access/Ownable.sol\":2597:2605  newOwner */\n  dup2\n    /* \"@openzeppelin/contracts/access/Ownable.sol\":2566:2606  OwnershipTransferred(oldOwner, newOwner) */\n  0xffffffffffffffffffffffffffffffffffffffff\n  and\n    /* \"@openzeppelin/contracts/access/Ownable.sol\":2587:2595  oldOwner */\n  dup2\n    /* \"@openzeppelin/contracts/access/Ownable.sol\":2566:2606  OwnershipTransferred(oldOwner, newOwner) */\n  0xffffffffffffffffffffffffffffffffffffffff\n  and\n  0x8be0079c531659141344cd1fd0a4f28419497f9722a3daafe3b4186f6b6457e0\n  mload(0x40)\n  mload(0x40)\n  dup1\n  swap2\n  sub\n  swap1\n  log3\n    /* \"@openzeppelin/contracts/access/Ownable.sol\":2489:2613  {... */\n  pop\n    /* \"@openzeppelin/contracts/access/Ownable.sol\":2426:2613  function _transferOwnership(address newOwner) internal virtual {... */\n  pop\n  jump\t// out\n    /* \"#utility.yul\":88:205   */\ntag_18:\n    /* \"#utility.yul\":197:198   */\n  0x00\n    /* \"#utility.yul\":194:195   */\n  dup1\n    /* \"#utility.yul\":187:199   */\n  revert\n    /* \"#utility.yul\":334:460   */\ntag_20:\n    /* \"#utility.yul\":371:378   */\n  0x00\n    /* \"#utility.yul\":411:453   */\n  0xffffffffffffffffffffffffffffffffffffffff\n    /* \"#utility.yul\":404:409   */\n  dup3\n    /* \"#utility.yul\":400:454   */\n  and\n    /* \"#utility.yul\":389:454   */\n  swap1\n  pop\n    /* \"#utility.yul\":334:460   */\n  swap2\n  swap1\n  pop\n  jump\t// out\n    /* \"#utility.yul\":466:562   */\ntag_21:\n    /* \"#utility.yul\":503:510   */\n  0x00\n    /* \"#utility.yul\":532:556   */\n  tag_30\n    /* \"#utility.yul\":550:555   */\n  dup3\n    /* \"#utility.yul\":532:556   */\n  tag_20\n  jump\t// in\ntag_30:\n    /* \"#utility.yul\":521:556   */\n  swap1\n  pop\n    /* \"#utility.yul\":466:562   */\n  swap2\n  swap1\n  pop\n  jump\t// out\n    /* \"#utility.yul\":568:690   */\ntag_22:\n    /* \"#utility.yul\":641:665   */\n  tag_32\n    /* \"#utility.yul\":659:664   */\n  dup2\n    /* \"#utility.yul\":641:665   */\n  tag_21\n  jump\t// in\ntag_32:\n    /* \"#utility.yul\":634:639   */\n  dup2\n    /* \"#utility.yul\":631:666   */\n  eq\n    /* \"#utility.yul\":621:684   */\n  tag_33\n  jumpi\n    /* \"#utility.yul\":680:681   */\n  0x00\n    /* \"#utility.yul\":677:678   */\n  dup1\n    /* \"#utility.yul\":670:682   */\n  revert\n    /* \"#utility.yul\":621:684   */\ntag_33:\n    /* \"#utility.yul\":568:690   */\n  pop\n  jump\t// out\n    /* \"#utility.yul\":696:839   */\ntag_23:\n    /* \"#utility.yul\":753:758   */\n  0x00\n    /* \"#utility.yul\":784:790   */\n  dup2\n    /* \"#utility.yul\":778:791   */\n  mload\n    /* \"#utility.yul\":769:791   */\n  swap1\n  pop\n    /* \"#utility.yul\":800:833   */\n  tag_35\n    /* \"#utility.yul\":827:832   */\n  dup2\n    /* \"#utility.yul\":800:833   */\n  tag_22\n  jump\t// in\ntag_35:\n    /* \"#utility.yul\":696:839   */\n  swap3\n  swap2\n  pop\n  pop\n  jump\t// out\n    /* \"#utility.yul\":845:1196   */\ntag_3:\n    /* \"#utility.yul\":915:921   */\n  0x00\n    /* \"#utility.yul\":964:966   */\n  0x20\n    /* \"#utility.yul\":952:961   */\n  dup3\n    /* \"#utility.yul\":943:950   */\n  dup5\n    /* \"#utility.yul\":939:962   */\n  sub\n    /* \"#utility.yul\":935:967   */\n  slt\n    /* \"#utility.yul\":932:1051   */\n  iszero\n  tag_37\n  jumpi\n    /* \"#utility.yul\":970:1049   */\n  tag_38\n  tag_18\n  jump\t// in\ntag_38:\n    /* \"#utility.yul\":932:1051   */\ntag_37:\n    /* \"#utility.yul\":1090:1091   */\n  0x00\n    /* \"#utility.yul\":1115:1179   */\n  tag_39\n    /* \"#utility.yul\":1171:1178   */\n  dup5\n    /* \"#utility.yul\":1162:1168   */\n  dup3\n    /* \"#utility.yul\":1151:1160   */\n  dup6\n    /* \"#utility.yul\":1147:1169   */\n  add\n    /* \"#utility.yul\":1115:1179   */\n  tag_23\n  jump\t// in\ntag_39:\n    /* \"#utility.yul\":1105:1179   */\n  swap2\n  pop\n    /* \"#utility.yul\":1061:1189   */\n  pop\n    /* \"#utility.yul\":845:1196   */\n  swap3\n  swap2\n  pop\n  pop\n  jump\t// out\n    /* \"contracts/SepoliaPortal.sol\":110:217  contract SepoliaPortal is CrossChainBridge {... */\ntag_14:\n  dataSize(sub_0)\n  dup1\n  dataOffset(sub_0)\n  0x00\n  codecopy\n  0x00\n  return\nstop\n\nsub_0: assembly {\n        /* \"contracts/SepoliaPortal.sol\":110:217  contract SepoliaPortal is CrossChainBridge {... */\n      mstore(0x40, 0x80)\n      callvalue\n      dup1\n      iszero\n      tag_1\n      jumpi\n      0x00\n      dup1\n      revert\n    tag_1:\n      pop\n      jumpi(tag_2, lt(calldatasize, 0x04))\n      shr(0xe0, calldataload(0x00))\n      dup1\n      0x8da5cb5b\n      gt\n      tag_12\n      jumpi\n      dup1\n      0x8da5cb5b\n      eq\n      tag_7\n      jumpi\n      dup1\n      0xaffed0e0\n      eq\n      tag_8\n      jumpi\n      dup1\n      0xf2fde38b\n      eq\n      tag_9\n      jumpi\n      dup1\n      0xf851a440\n      eq\n      tag_10\n      jumpi\n      dup1\n      0xfc0c546a\n      eq\n      tag_11\n      jumpi\n      jump(tag_2)\n    tag_12:\n      dup1\n      0x52555702\n      eq\n      tag_3\n      jumpi\n      dup1\n      0x715018a6\n      eq\n      tag_4\n      jumpi\n      dup1\n      0x7cc70240\n      eq\n      tag_5\n      jumpi\n      dup1\n      0x80a5a371\n      eq\n      tag_6\n      jumpi\n    tag_2:\n      0x00\n      dup1\n      revert\n        /* \"contracts/CrossBridge.sol\":1487:2388  function mint (... */\n    tag_3:\n      tag_13\n      0x04\n      dup1\n      calldatasize\n      sub\n      dup2\n      add\n      swap1\n      tag_14\n      swap2\n      swap1\n      tag_15\n      jump\t// in\n    tag_14:\n      tag_16\n      jump\t// in\n    tag_13:\n      stop\n        /* \"@openzeppelin/contracts/access/Ownable.sol\":1824:1925  function renounceOwnership() public virtual onlyOwner {... */\n    tag_4:\n      tag_17\n      tag_18\n      jump\t// in\n    tag_17:\n      stop\n        /* \"contracts/CrossBridge.sol\":393:460  mapping(address => mapping(uint256 => bool)) public processedNonces */\n    tag_5:\n      tag_19\n      0x04\n      dup1\n      calldatasize\n      sub\n      dup2\n      add\n      swap1\n      tag_20\n      swap2\n      swap1\n      tag_21\n      jump\t// in\n    tag_20:\n      tag_22\n      jump\t// in\n    tag_19:\n      mload(0x40)\n      tag_23\n      swap2\n      swap1\n      tag_24\n      jump\t// in\n    tag_23:\n      mload(0x40)\n      dup1\n      swap2\n      sub\n      swap1\n      return\n        /* \"contracts/CrossBridge.sol\":845:1481  function burn (... */\n    tag_6:\n      tag_25\n      0x04\n      dup1\n      calldatasize\n      sub\n      dup2\n      add\n      swap1\n      tag_26\n      swap2\n      swap1\n      tag_27\n      jump\t// in\n    tag_26:\n      tag_28\n      jump\t// in\n    tag_25:\n      stop\n        /* \"@openzeppelin/contracts/access/Ownable.sol\":1201:1286  function owner() public view virtual returns (address) {... */\n    tag_7:\n      tag_29\n      tag_30\n      jump\t// in\n    tag_29:\n      mload(0x40)\n      tag_31\n      swap2\n      swap1\n      tag_32\n      jump\t// in\n    tag_31:\n      mload(0x40)\n      dup1\n      swap2\n      sub\n      swap1\n      return\n        /* \"contracts/CrossBridge.sol\":367:387  uint256 public nonce */\n    tag_8:\n      tag_33\n      tag_34\n      jump\t// in\n    tag_33:\n      mload(0x40)\n      tag_35\n      swap2\n      swap1\n      tag_36\n      jump\t// in\n    tag_35:\n      mload(0x40)\n      dup1\n      swap2\n      sub\n      swap1\n      return\n        /* \"@openzeppelin/contracts/access/Ownable.sol\":2074:2272  function transferOwnership(address newOwner) public virtual onlyOwner {... */\n    tag_9:\n      tag_37\n      0x04\n      dup1\n      calldatasize\n      sub\n      dup2\n      add\n      swap1\n      tag_38\n      swap2\n      swap1\n      tag_39\n      jump\t// in\n    tag_38:\n      tag_40\n      jump\t// in\n    tag_37:\n      stop\n        /* \"contracts/CrossBridge.sol\":311:331  address public admin */\n    tag_10:\n      tag_41\n      tag_42\n      jump\t// in\n    tag_41:\n      mload(0x40)\n      tag_43\n      swap2\n      swap1\n      tag_32\n      jump\t// in\n    tag_43:\n      mload(0x40)\n      dup1\n      swap2\n      sub\n      swap1\n      return\n        /* \"contracts/CrossBridge.sol\":337:361  ICrossToken public token */\n    tag_11:\n      tag_44\n      tag_45\n      jump\t// in\n    tag_44:\n      mload(0x40)\n      tag_46\n      swap2\n      swap1\n      tag_47\n      jump\t// in\n    tag_46:\n      mload(0x40)\n      dup1\n      swap2\n      sub\n      swap1\n      return\n        /* \"contracts/CrossBridge.sol\":1487:2388  function mint (... */\n    tag_16:\n        /* \"contracts/CrossBridge.sol\":1690:1695  admin */\n      0x01\n      0x00\n      swap1\n      sload\n      swap1\n      0x0100\n      exp\n      swap1\n      div\n      0xffffffffffffffffffffffffffffffffffffffff\n      and\n        /* \"contracts/CrossBridge.sol\":1676:1695  msg.sender == admin */\n      0xffffffffffffffffffffffffffffffffffffffff\n      and\n        /* \"contracts/CrossBridge.sol\":1676:1686  msg.sender */\n      caller\n        /* \"contracts/CrossBridge.sol\":1676:1695  msg.sender == admin */\n      0xffffffffffffffffffffffffffffffffffffffff\n      and\n      eq\n        /* \"contracts/CrossBridge.sol\":1668:1711  require(msg.sender == admin, \"Only Admin!\") */\n      tag_49\n      jumpi\n      mload(0x40)\n      0x08c379a000000000000000000000000000000000000000000000000000000000\n      dup2\n      mstore\n      0x04\n      add\n      tag_50\n      swap1\n      tag_51\n      jump\t// in\n    tag_50:\n      mload(0x40)\n      dup1\n      swap2\n      sub\n      swap1\n      revert\n    tag_49:\n        /* \"contracts/CrossBridge.sol\":1721:1736  bytes32 message */\n      0x00\n        /* \"contracts/CrossBridge.sol\":1739:1909  prefixed(... */\n      tag_52\n        /* \"contracts/CrossBridge.sol\":1805:1811  sender */\n      dup8\n        /* \"contracts/CrossBridge.sol\":1829:1837  receiver */\n      dup8\n        /* \"contracts/CrossBridge.sol\":1855:1861  amount */\n      dup8\n        /* \"contracts/CrossBridge.sol\":1879:1884  nonce */\n      sload(0x03)\n        /* \"contracts/CrossBridge.sol\":1771:1898  abi.encodePacked(... */\n      add(0x20, mload(0x40))\n      tag_53\n      swap5\n      swap4\n      swap3\n      swap2\n      swap1\n      tag_54\n      jump\t// in\n    tag_53:\n      mload(0x40)\n      0x20\n      dup2\n      dup4\n      sub\n      sub\n      dup2\n      mstore\n      swap1\n      0x40\n      mstore\n        /* \"contracts/CrossBridge.sol\":1761:1899  keccak256(abi.encodePacked(... */\n      dup1\n      mload\n      swap1\n      0x20\n      add\n      keccak256\n        /* \"contracts/CrossBridge.sol\":1739:1747  prefixed */\n      tag_55\n        /* \"contracts/CrossBridge.sol\":1739:1909  prefixed(... */\n      jump\t// in\n    tag_52:\n        /* \"contracts/CrossBridge.sol\":1721:1909  bytes32 message = prefixed(... */\n      swap1\n      pop\n        /* \"contracts/CrossBridge.sol\":1964:1970  sender */\n      dup7\n        /* \"contracts/CrossBridge.sol\":1927:1970  recoverSigner(message, signature) == sender */\n      0xffffffffffffffffffffffffffffffffffffffff\n      and\n        /* \"contracts/CrossBridge.sol\":1927:1960  recoverSigner(message, signature) */\n      tag_56\n        /* \"contracts/CrossBridge.sol\":1941:1948  message */\n      dup3\n        /* \"contracts/CrossBridge.sol\":1950:1959  signature */\n      dup6\n      dup6\n        /* \"contracts/CrossBridge.sol\":1927:1960  recoverSigner(message, signature) */\n      dup1\n      dup1\n      0x1f\n      add\n      0x20\n      dup1\n      swap2\n      div\n      mul\n      0x20\n      add\n      mload(0x40)\n      swap1\n      dup2\n      add\n      0x40\n      mstore\n      dup1\n      swap4\n      swap3\n      swap2\n      swap1\n      dup2\n      dup2\n      mstore\n      0x20\n      add\n      dup4\n      dup4\n      dup1\n      dup3\n      dup5\n      calldatacopy\n      0x00\n      dup2\n      dup5\n      add\n      mstore\n      not(0x1f)\n      0x1f\n      dup3\n      add\n      and\n      swap1\n      pop\n      dup1\n      dup4\n      add\n      swap3\n      pop\n      pop\n      pop\n      pop\n      pop\n      pop\n      pop\n        /* \"contracts/CrossBridge.sol\":1927:1940  recoverSigner */\n      tag_57\n        /* \"contracts/CrossBridge.sol\":1927:1960  recoverSigner(message, signature) */\n      jump\t// in\n    tag_56:\n        /* \"contracts/CrossBridge.sol\":1927:1970  recoverSigner(message, signature) == sender */\n      0xffffffffffffffffffffffffffffffffffffffff\n      and\n      eq\n        /* \"contracts/CrossBridge.sol\":1919:1991  require(recoverSigner(message, signature) == sender, \"Wrong Signature!\") */\n      tag_58\n      jumpi\n      mload(0x40)\n      0x08c379a000000000000000000000000000000000000000000000000000000000\n      dup2\n      mstore\n      0x04\n      add\n      tag_59\n      swap1\n      tag_60\n      jump\t// in\n    tag_59:\n      mload(0x40)\n      dup1\n      swap2\n      sub\n      swap1\n      revert\n    tag_58:\n        /* \"contracts/CrossBridge.sol\":2070:2075  false */\n      0x00\n        /* \"contracts/CrossBridge.sol\":2022:2075  processedNonces[msg.sender][crossChainNonce] == false */\n      iszero\n      iszero\n        /* \"contracts/CrossBridge.sol\":2022:2037  processedNonces */\n      0x04\n        /* \"contracts/CrossBridge.sol\":2022:2049  processedNonces[msg.sender] */\n      0x00\n        /* \"contracts/CrossBridge.sol\":2038:2048  msg.sender */\n      caller\n        /* \"contracts/CrossBridge.sol\":2022:2049  processedNonces[msg.sender] */\n      0xffffffffffffffffffffffffffffffffffffffff\n      and\n      0xffffffffffffffffffffffffffffffffffffffff\n      and\n      dup2\n      mstore\n      0x20\n      add\n      swap1\n      dup2\n      mstore\n      0x20\n      add\n      0x00\n      keccak256\n        /* \"contracts/CrossBridge.sol\":2022:2066  processedNonces[msg.sender][crossChainNonce] */\n      0x00\n        /* \"contracts/CrossBridge.sol\":2050:2065  crossChainNonce */\n      dup7\n        /* \"contracts/CrossBridge.sol\":2022:2066  processedNonces[msg.sender][crossChainNonce] */\n      dup2\n      mstore\n      0x20\n      add\n      swap1\n      dup2\n      mstore\n      0x20\n      add\n      0x00\n      keccak256\n      0x00\n      swap1\n      sload\n      swap1\n      0x0100\n      exp\n      swap1\n      div\n      0xff\n      and\n        /* \"contracts/CrossBridge.sol\":2022:2075  processedNonces[msg.sender][crossChainNonce] == false */\n      iszero\n      iszero\n      eq\n        /* \"contracts/CrossBridge.sol\":2001:2122  require(... */\n      tag_61\n      jumpi\n      mload(0x40)\n      0x08c379a000000000000000000000000000000000000000000000000000000000\n      dup2\n      mstore\n      0x04\n      add\n      tag_62\n      swap1\n      tag_63\n      jump\t// in\n    tag_62:\n      mload(0x40)\n      dup1\n      swap2\n      sub\n      swap1\n      revert\n    tag_61:\n        /* \"contracts/CrossBridge.sol\":2132:2137  token */\n      0x02\n      0x00\n      swap1\n      sload\n      swap1\n      0x0100\n      exp\n      swap1\n      div\n      0xffffffffffffffffffffffffffffffffffffffff\n      and\n        /* \"contracts/CrossBridge.sol\":2132:2142  token.mint */\n      0xffffffffffffffffffffffffffffffffffffffff\n      and\n      0x40c10f19\n        /* \"contracts/CrossBridge.sol\":2143:2151  receiver */\n      dup8\n        /* \"contracts/CrossBridge.sol\":2153:2159  amount */\n      dup8\n        /* \"contracts/CrossBridge.sol\":2132:2160  token.mint(receiver, amount) */\n      mload(0x40)\n      dup4\n      0xffffffff\n      and\n      0xe0\n      shl\n      dup2\n      mstore\n      0x04\n      add\n      tag_64\n      swap3\n      swap2\n      swap1\n      tag_65\n      jump\t// in\n    tag_64:\n      0x00\n      mload(0x40)\n      dup1\n      dup4\n      sub\n      dup2\n      0x00\n      dup8\n      dup1\n      extcodesize\n      iszero\n      dup1\n      iszero\n      tag_66\n      jumpi\n      0x00\n      dup1\n      revert\n    tag_66:\n      pop\n      gas\n      call\n      iszero\n      dup1\n      iszero\n      tag_68\n      jumpi\n      returndatasize\n      0x00\n      dup1\n      returndatacopy\n      revert(0x00, returndatasize)\n    tag_68:\n      pop\n      pop\n      pop\n      pop\n        /* \"contracts/CrossBridge.sol\":2359:2371  Process.Mint */\n      0x00\n        /* \"contracts/CrossBridge.sol\":2184:2381  CrossTransfer (... */\n      0x01\n      dup2\n      gt\n      iszero\n      tag_69\n      jumpi\n      tag_70\n      tag_71\n      jump\t// in\n    tag_70:\n    tag_69:\n      0xe9e94abdddf8d25c5f8173dd798c92d0e9c6f756e2b05af036ab3d7b333f75c0\n        /* \"contracts/CrossBridge.sol\":2212:2222  msg.sender */\n      caller\n        /* \"contracts/CrossBridge.sol\":2236:2244  receiver */\n      dup9\n        /* \"contracts/CrossBridge.sol\":2258:2264  amount */\n      dup9\n        /* \"contracts/CrossBridge.sol\":2278:2293  block.timestamp */\n      timestamp\n        /* \"contracts/CrossBridge.sol\":2307:2322  crossChainNonce */\n      dup10\n        /* \"contracts/CrossBridge.sol\":2336:2345  signature */\n      dup10\n      dup10\n        /* \"contracts/CrossBridge.sol\":2184:2381  CrossTransfer (... */\n      mload(0x40)\n      tag_72\n      swap8\n      swap7\n      swap6\n      swap5\n      swap4\n      swap3\n      swap2\n      swap1\n      tag_73\n      jump\t// in\n    tag_72:\n      mload(0x40)\n      dup1\n      swap2\n      sub\n      swap1\n      log2\n        /* \"contracts/CrossBridge.sol\":1658:2388  {... */\n      pop\n        /* \"contracts/CrossBridge.sol\":1487:2388  function mint (... */\n      pop\n      pop\n      pop\n      pop\n      pop\n      pop\n      jump\t// out\n        /* \"@openzeppelin/contracts/access/Ownable.sol\":1824:1925  function renounceOwnership() public virtual onlyOwner {... */\n    tag_18:\n        /* \"@openzeppelin/contracts/access/Ownable.sol\":1094:1107  _checkOwner() */\n      tag_75\n        /* \"@openzeppelin/contracts/access/Ownable.sol\":1094:1105  _checkOwner */\n      tag_76\n        /* \"@openzeppelin/contracts/access/Ownable.sol\":1094:1107  _checkOwner() */\n      jump\t// in\n    tag_75:\n        /* \"@openzeppelin/contracts/access/Ownable.sol\":1888:1918  _transferOwnership(address(0)) */\n      tag_78\n        /* \"@openzeppelin/contracts/access/Ownable.sol\":1915:1916  0 */\n      0x00\n        /* \"@openzeppelin/contracts/access/Ownable.sol\":1888:1906  _transferOwnership */\n      tag_79\n        /* \"@openzeppelin/contracts/access/Ownable.sol\":1888:1918  _transferOwnership(address(0)) */\n      jump\t// in\n    tag_78:\n        /* \"@openzeppelin/contracts/access/Ownable.sol\":1824:1925  function renounceOwnership() public virtual onlyOwner {... */\n      jump\t// out\n        /* \"contracts/CrossBridge.sol\":393:460  mapping(address => mapping(uint256 => bool)) public processedNonces */\n    tag_22:\n      mstore(0x20, 0x04)\n      dup2\n      0x00\n      mstore\n      mstore(0x20, keccak256(0x00, 0x40))\n      dup1\n      0x00\n      mstore\n      keccak256(0x00, 0x40)\n      0x00\n      swap2\n      pop\n      swap2\n      pop\n      swap1\n      sload\n      swap1\n      0x0100\n      exp\n      swap1\n      div\n      0xff\n      and\n      dup2\n      jump\t// out\n        /* \"contracts/CrossBridge.sol\":845:1481  function burn (... */\n    tag_28:\n        /* \"contracts/CrossBridge.sol\":998:1003  admin */\n      0x01\n      0x00\n      swap1\n      sload\n      swap1\n      0x0100\n      exp\n      swap1\n      div\n      0xffffffffffffffffffffffffffffffffffffffff\n      and\n        /* \"contracts/CrossBridge.sol\":984:1003  msg.sender == admin */\n      0xffffffffffffffffffffffffffffffffffffffff\n      and\n        /* \"contracts/CrossBridge.sol\":984:994  msg.sender */\n      caller\n        /* \"contracts/CrossBridge.sol\":984:1003  msg.sender == admin */\n      0xffffffffffffffffffffffffffffffffffffffff\n      and\n      eq\n        /* \"contracts/CrossBridge.sol\":976:1019  require(msg.sender == admin, \"Only Admin!\") */\n      tag_81\n      jumpi\n      mload(0x40)\n      0x08c379a000000000000000000000000000000000000000000000000000000000\n      dup2\n      mstore\n      0x04\n      add\n      tag_82\n      swap1\n      tag_51\n      jump\t// in\n    tag_82:\n      mload(0x40)\n      dup1\n      swap2\n      sub\n      swap1\n      revert\n    tag_81:\n        /* \"contracts/CrossBridge.sol\":1098:1103  false */\n      0x00\n        /* \"contracts/CrossBridge.sol\":1050:1103  processedNonces[msg.sender][crossChainNonce] == false */\n      iszero\n      iszero\n        /* \"contracts/CrossBridge.sol\":1050:1065  processedNonces */\n      0x04\n        /* \"contracts/CrossBridge.sol\":1050:1077  processedNonces[msg.sender] */\n      0x00\n        /* \"contracts/CrossBridge.sol\":1066:1076  msg.sender */\n      caller\n        /* \"contracts/CrossBridge.sol\":1050:1077  processedNonces[msg.sender] */\n      0xffffffffffffffffffffffffffffffffffffffff\n      and\n      0xffffffffffffffffffffffffffffffffffffffff\n      and\n      dup2\n      mstore\n      0x20\n      add\n      swap1\n      dup2\n      mstore\n      0x20\n      add\n      0x00\n      keccak256\n        /* \"contracts/CrossBridge.sol\":1050:1094  processedNonces[msg.sender][crossChainNonce] */\n      0x00\n        /* \"contracts/CrossBridge.sol\":1078:1093  crossChainNonce */\n      dup6\n        /* \"contracts/CrossBridge.sol\":1050:1094  processedNonces[msg.sender][crossChainNonce] */\n      dup2\n      mstore\n      0x20\n      add\n      swap1\n      dup2\n      mstore\n      0x20\n      add\n      0x00\n      keccak256\n      0x00\n      swap1\n      sload\n      swap1\n      0x0100\n      exp\n      swap1\n      div\n      0xff\n      and\n        /* \"contracts/CrossBridge.sol\":1050:1103  processedNonces[msg.sender][crossChainNonce] == false */\n      iszero\n      iszero\n      eq\n        /* \"contracts/CrossBridge.sol\":1029:1137  require(... */\n      tag_83\n      jumpi\n      mload(0x40)\n      0x08c379a000000000000000000000000000000000000000000000000000000000\n      dup2\n      mstore\n      0x04\n      add\n      tag_84\n      swap1\n      tag_63\n      jump\t// in\n    tag_84:\n      mload(0x40)\n      dup1\n      swap2\n      sub\n      swap1\n      revert\n    tag_83:\n        /* \"contracts/CrossBridge.sol\":1194:1198  true */\n      0x01\n        /* \"contracts/CrossBridge.sol\":1147:1162  processedNonces */\n      0x04\n        /* \"contracts/CrossBridge.sol\":1147:1174  processedNonces[msg.sender] */\n      0x00\n        /* \"contracts/CrossBridge.sol\":1163:1173  msg.sender */\n      caller\n        /* \"contracts/CrossBridge.sol\":1147:1174  processedNonces[msg.sender] */\n      0xffffffffffffffffffffffffffffffffffffffff\n      and\n      0xffffffffffffffffffffffffffffffffffffffff\n      and\n      dup2\n      mstore\n      0x20\n      add\n      swap1\n      dup2\n      mstore\n      0x20\n      add\n      0x00\n      keccak256\n        /* \"contracts/CrossBridge.sol\":1147:1191  processedNonces[msg.sender][crossChainNonce] */\n      0x00\n        /* \"contracts/CrossBridge.sol\":1175:1190  crossChainNonce */\n      dup6\n        /* \"contracts/CrossBridge.sol\":1147:1191  processedNonces[msg.sender][crossChainNonce] */\n      dup2\n      mstore\n      0x20\n      add\n      swap1\n      dup2\n      mstore\n      0x20\n      add\n      0x00\n      keccak256\n      0x00\n        /* \"contracts/CrossBridge.sol\":1147:1198  processedNonces[msg.sender][crossChainNonce] = true */\n      0x0100\n      exp\n      dup2\n      sload\n      dup2\n      0xff\n      mul\n      not\n      and\n      swap1\n      dup4\n      iszero\n      iszero\n      mul\n      or\n      swap1\n      sstore\n      pop\n        /* \"contracts/CrossBridge.sol\":1212:1217  token */\n      0x02\n      0x00\n      swap1\n      sload\n      swap1\n      0x0100\n      exp\n      swap1\n      div\n      0xffffffffffffffffffffffffffffffffffffffff\n      and\n        /* \"contracts/CrossBridge.sol\":1212:1222  token.burn */\n      0xffffffffffffffffffffffffffffffffffffffff\n      and\n      0x9dc29fac\n        /* \"contracts/CrossBridge.sol\":1223:1233  msg.sender */\n      caller\n        /* \"contracts/CrossBridge.sol\":1235:1241  amount */\n      dup7\n        /* \"contracts/CrossBridge.sol\":1212:1242  token.burn(msg.sender, amount) */\n      mload(0x40)\n      dup4\n      0xffffffff\n      and\n      0xe0\n      shl\n      dup2\n      mstore\n      0x04\n      add\n      tag_85\n      swap3\n      swap2\n      swap1\n      tag_65\n      jump\t// in\n    tag_85:\n      0x00\n      mload(0x40)\n      dup1\n      dup4\n      sub\n      dup2\n      0x00\n      dup8\n      dup1\n      extcodesize\n      iszero\n      dup1\n      iszero\n      tag_86\n      jumpi\n      0x00\n      dup1\n      revert\n    tag_86:\n      pop\n      gas\n      call\n      iszero\n      dup1\n      iszero\n      tag_88\n      jumpi\n      returndatasize\n      0x00\n      dup1\n      returndatacopy\n      revert(0x00, returndatasize)\n    tag_88:\n      pop\n      pop\n      pop\n      pop\n        /* \"contracts/CrossBridge.sol\":1434:1446  Process.Burn */\n      0x01\n        /* \"contracts/CrossBridge.sol\":1258:1456  CrossTransfer(... */\n      dup1\n      dup2\n      gt\n      iszero\n      tag_89\n      jumpi\n      tag_90\n      tag_71\n      jump\t// in\n    tag_90:\n    tag_89:\n      0xe9e94abdddf8d25c5f8173dd798c92d0e9c6f756e2b05af036ab3d7b333f75c0\n        /* \"contracts/CrossBridge.sol\":1285:1295  msg.sender */\n      caller\n        /* \"contracts/CrossBridge.sol\":1317:1318  0 */\n      0x00\n        /* \"contracts/CrossBridge.sol\":1333:1339  amount */\n      dup8\n        /* \"contracts/CrossBridge.sol\":1353:1368  block.timestamp */\n      timestamp\n        /* \"contracts/CrossBridge.sol\":1382:1397  crossChainNonce */\n      dup9\n        /* \"contracts/CrossBridge.sol\":1411:1420  signature */\n      dup9\n      dup9\n        /* \"contracts/CrossBridge.sol\":1258:1456  CrossTransfer(... */\n      mload(0x40)\n      tag_91\n      swap8\n      swap7\n      swap6\n      swap5\n      swap4\n      swap3\n      swap2\n      swap1\n      tag_73\n      jump\t// in\n    tag_91:\n      mload(0x40)\n      dup1\n      swap2\n      sub\n      swap1\n      log2\n        /* \"contracts/CrossBridge.sol\":1467:1472  nonce */\n      0x03\n      0x00\n        /* \"contracts/CrossBridge.sol\":1467:1474  nonce++ */\n      dup2\n      sload\n      dup1\n      swap3\n      swap2\n      swap1\n      tag_92\n      swap1\n      tag_93\n      jump\t// in\n    tag_92:\n      swap2\n      swap1\n      pop\n      sstore\n      pop\n        /* \"contracts/CrossBridge.sol\":845:1481  function burn (... */\n      pop\n      pop\n      pop\n      pop\n      jump\t// out\n        /* \"@openzeppelin/contracts/access/Ownable.sol\":1201:1286  function owner() public view virtual returns (address) {... */\n    tag_30:\n        /* \"@openzeppelin/contracts/access/Ownable.sol\":1247:1254  address */\n      0x00\n        /* \"@openzeppelin/contracts/access/Ownable.sol\":1273:1279  _owner */\n      dup1\n      0x00\n      swap1\n      sload\n      swap1\n      0x0100\n      exp\n      swap1\n      div\n      0xffffffffffffffffffffffffffffffffffffffff\n      and\n        /* \"@openzeppelin/contracts/access/Ownable.sol\":1266:1279  return _owner */\n      swap1\n      pop\n        /* \"@openzeppelin/contracts/access/Ownable.sol\":1201:1286  function owner() public view virtual returns (address) {... */\n      swap1\n      jump\t// out\n        /* \"contracts/CrossBridge.sol\":367:387  uint256 public nonce */\n    tag_34:\n      sload(0x03)\n      dup2\n      jump\t// out\n        /* \"@openzeppelin/contracts/access/Ownable.sol\":2074:2272  function transferOwnership(address newOwner) public virtual onlyOwner {... */\n    tag_40:\n        /* \"@openzeppelin/contracts/access/Ownable.sol\":1094:1107  _checkOwner() */\n      tag_96\n        /* \"@openzeppelin/contracts/access/Ownable.sol\":1094:1105  _checkOwner */\n      tag_76\n        /* \"@openzeppelin/contracts/access/Ownable.sol\":1094:1107  _checkOwner() */\n      jump\t// in\n    tag_96:\n        /* \"@openzeppelin/contracts/access/Ownable.sol\":2182:2183  0 */\n      0x00\n        /* \"@openzeppelin/contracts/access/Ownable.sol\":2162:2184  newOwner != address(0) */\n      0xffffffffffffffffffffffffffffffffffffffff\n      and\n        /* \"@openzeppelin/contracts/access/Ownable.sol\":2162:2170  newOwner */\n      dup2\n        /* \"@openzeppelin/contracts/access/Ownable.sol\":2162:2184  newOwner != address(0) */\n      0xffffffffffffffffffffffffffffffffffffffff\n      and\n      sub\n        /* \"@openzeppelin/contracts/access/Ownable.sol\":2154:2227  require(newOwner != address(0), \"Ownable: new owner is the zero address\") */\n      tag_98\n      jumpi\n      mload(0x40)\n      0x08c379a000000000000000000000000000000000000000000000000000000000\n      dup2\n      mstore\n      0x04\n      add\n      tag_99\n      swap1\n      tag_100\n      jump\t// in\n    tag_99:\n      mload(0x40)\n      dup1\n      swap2\n      sub\n      swap1\n      revert\n    tag_98:\n        /* \"@openzeppelin/contracts/access/Ownable.sol\":2237:2265  _transferOwnership(newOwner) */\n      tag_101\n        /* \"@openzeppelin/contracts/access/Ownable.sol\":2256:2264  newOwner */\n      dup2\n        /* \"@openzeppelin/contracts/access/Ownable.sol\":2237:2255  _transferOwnership */\n      tag_79\n        /* \"@openzeppelin/contracts/access/Ownable.sol\":2237:2265  _transferOwnership(newOwner) */\n      jump\t// in\n    tag_101:\n        /* \"@openzeppelin/contracts/access/Ownable.sol\":2074:2272  function transferOwnership(address newOwner) public virtual onlyOwner {... */\n      pop\n      jump\t// out\n        /* \"contracts/CrossBridge.sol\":311:331  address public admin */\n    tag_42:\n      0x01\n      0x00\n      swap1\n      sload\n      swap1\n      0x0100\n      exp\n      swap1\n      div\n      0xffffffffffffffffffffffffffffffffffffffff\n      and\n      dup2\n      jump\t// out\n        /* \"contracts/CrossBridge.sol\":337:361  ICrossToken public token */\n    tag_45:\n      0x02\n      0x00\n      swap1\n      sload\n      swap1\n      0x0100\n      exp\n      swap1\n      div\n      0xffffffffffffffffffffffffffffffffffffffff\n      and\n      dup2\n      jump\t// out\n        /* \"contracts/CrossBridge.sol\":2394:2574  function prefixed (bytes32 hash) internal pure returns (bytes32) {... */\n    tag_55:\n        /* \"contracts/CrossBridge.sol\":2450:2457  bytes32 */\n      0x00\n        /* \"contracts/CrossBridge.sol\":2552:2556  hash */\n      dup2\n        /* \"contracts/CrossBridge.sol\":2486:2566  abi.encodePacked(... */\n      add(0x20, mload(0x40))\n      tag_103\n      swap2\n      swap1\n      tag_104\n      jump\t// in\n    tag_103:\n      mload(0x40)\n      0x20\n      dup2\n      dup4\n      sub\n      sub\n      dup2\n      mstore\n      swap1\n      0x40\n      mstore\n        /* \"contracts/CrossBridge.sol\":2476:2567  keccak256(abi.encodePacked(... */\n      dup1\n      mload\n      swap1\n      0x20\n      add\n      keccak256\n        /* \"contracts/CrossBridge.sol\":2469:2567  return keccak256(abi.encodePacked(... */\n      swap1\n      pop\n        /* \"contracts/CrossBridge.sol\":2394:2574  function prefixed (bytes32 hash) internal pure returns (bytes32) {... */\n      swap2\n      swap1\n      pop\n      jump\t// out\n        /* \"contracts/CrossBridge.sol\":2580:2820  function recoverSigner (bytes32 message, bytes memory sig) internal pure returns (address) {... */\n    tag_57:\n        /* \"contracts/CrossBridge.sol\":2662:2669  address */\n      0x00\n        /* \"contracts/CrossBridge.sol\":2681:2688  uint8 v */\n      dup1\n        /* \"contracts/CrossBridge.sol\":2698:2707  bytes32 r */\n      0x00\n        /* \"contracts/CrossBridge.sol\":2717:2726  bytes32 s */\n      dup1\n        /* \"contracts/CrossBridge.sol\":2749:2768  splitSignature(sig) */\n      tag_106\n        /* \"contracts/CrossBridge.sol\":2764:2767  sig */\n      dup6\n        /* \"contracts/CrossBridge.sol\":2749:2763  splitSignature */\n      tag_107\n        /* \"contracts/CrossBridge.sol\":2749:2768  splitSignature(sig) */\n      jump\t// in\n    tag_106:\n        /* \"contracts/CrossBridge.sol\":2737:2768  (v, r, s) = splitSignature(sig) */\n      dup1\n      swap4\n      pop\n      dup2\n      swap5\n      pop\n      dup3\n      swap6\n      pop\n      pop\n      pop\n      pop\n        /* \"contracts/CrossBridge.sol\":2786:2813  ecrecover(message, v, r, s) */\n      0x01\n        /* \"contracts/CrossBridge.sol\":2796:2803  message */\n      dup7\n        /* \"contracts/CrossBridge.sol\":2805:2806  v */\n      dup5\n        /* \"contracts/CrossBridge.sol\":2808:2809  r */\n      dup5\n        /* \"contracts/CrossBridge.sol\":2811:2812  s */\n      dup5\n        /* \"contracts/CrossBridge.sol\":2786:2813  ecrecover(message, v, r, s) */\n      mload(0x40)\n      0x00\n      dup2\n      mstore\n      0x20\n      add\n      0x40\n      mstore\n      mload(0x40)\n      tag_108\n      swap5\n      swap4\n      swap3\n      swap2\n      swap1\n      tag_109\n      jump\t// in\n    tag_108:\n      0x20\n      mload(0x40)\n      0x20\n      dup2\n      sub\n      swap1\n      dup1\n      dup5\n      sub\n      swap1\n      dup6\n      gas\n      staticcall\n      iszero\n      dup1\n      iszero\n      tag_111\n      jumpi\n      returndatasize\n      0x00\n      dup1\n      returndatacopy\n      revert(0x00, returndatasize)\n    tag_111:\n      pop\n      pop\n      pop\n      mload(sub(mload(0x40), 0x20))\n        /* \"contracts/CrossBridge.sol\":2779:2813  return ecrecover(message, v, r, s) */\n      swap4\n      pop\n      pop\n      pop\n      pop\n        /* \"contracts/CrossBridge.sol\":2580:2820  function recoverSigner (bytes32 message, bytes memory sig) internal pure returns (address) {... */\n      swap3\n      swap2\n      pop\n      pop\n      jump\t// out\n        /* \"@openzeppelin/contracts/access/Ownable.sol\":1359:1489  function _checkOwner() internal view virtual {... */\n    tag_76:\n        /* \"@openzeppelin/contracts/access/Ownable.sol\":1433:1445  _msgSender() */\n      tag_113\n        /* \"@openzeppelin/contracts/access/Ownable.sol\":1433:1443  _msgSender */\n      tag_114\n        /* \"@openzeppelin/contracts/access/Ownable.sol\":1433:1445  _msgSender() */\n      jump\t// in\n    tag_113:\n        /* \"@openzeppelin/contracts/access/Ownable.sol\":1422:1445  owner() == _msgSender() */\n      0xffffffffffffffffffffffffffffffffffffffff\n      and\n        /* \"@openzeppelin/contracts/access/Ownable.sol\":1422:1429  owner() */\n      tag_115\n        /* \"@openzeppelin/contracts/access/Ownable.sol\":1422:1427  owner */\n      tag_30\n        /* \"@openzeppelin/contracts/access/Ownable.sol\":1422:1429  owner() */\n      jump\t// in\n    tag_115:\n        /* \"@openzeppelin/contracts/access/Ownable.sol\":1422:1445  owner() == _msgSender() */\n      0xffffffffffffffffffffffffffffffffffffffff\n      and\n      eq\n        /* \"@openzeppelin/contracts/access/Ownable.sol\":1414:1482  require(owner() == _msgSender(), \"Ownable: caller is not the owner\") */\n      tag_116\n      jumpi\n      mload(0x40)\n      0x08c379a000000000000000000000000000000000000000000000000000000000\n      dup2\n      mstore\n      0x04\n      add\n      tag_117\n      swap1\n      tag_118\n      jump\t// in\n    tag_117:\n      mload(0x40)\n      dup1\n      swap2\n      sub\n      swap1\n      revert\n    tag_116:\n        /* \"@openzeppelin/contracts/access/Ownable.sol\":1359:1489  function _checkOwner() internal view virtual {... */\n      jump\t// out\n        /* \"@openzeppelin/contracts/access/Ownable.sol\":2426:2613  function _transferOwnership(address newOwner) internal virtual {... */\n    tag_79:\n        /* \"@openzeppelin/contracts/access/Ownable.sol\":2499:2515  address oldOwner */\n      0x00\n        /* \"@openzeppelin/contracts/access/Ownable.sol\":2518:2524  _owner */\n      dup1\n      0x00\n      swap1\n      sload\n      swap1\n      0x0100\n      exp\n      swap1\n      div\n      0xffffffffffffffffffffffffffffffffffffffff\n      and\n        /* \"@openzeppelin/contracts/access/Ownable.sol\":2499:2524  address oldOwner = _owner */\n      swap1\n      pop\n        /* \"@openzeppelin/contracts/access/Ownable.sol\":2543:2551  newOwner */\n      dup2\n        /* \"@openzeppelin/contracts/access/Ownable.sol\":2534:2540  _owner */\n      0x00\n      dup1\n        /* \"@openzeppelin/contracts/access/Ownable.sol\":2534:2551  _owner = newOwner */\n      0x0100\n      exp\n      dup2\n      sload\n      dup2\n      0xffffffffffffffffffffffffffffffffffffffff\n      mul\n      not\n      and\n      swap1\n      dup4\n      0xffffffffffffffffffffffffffffffffffffffff\n      and\n      mul\n      or\n      swap1\n      sstore\n      pop\n        /* \"@openzeppelin/contracts/access/Ownable.sol\":2597:2605  newOwner */\n      dup2\n        /* \"@openzeppelin/contracts/access/Ownable.sol\":2566:2606  OwnershipTransferred(oldOwner, newOwner) */\n      0xffffffffffffffffffffffffffffffffffffffff\n      and\n        /* \"@openzeppelin/contracts/access/Ownable.sol\":2587:2595  oldOwner */\n      dup2\n        /* \"@openzeppelin/contracts/access/Ownable.sol\":2566:2606  OwnershipTransferred(oldOwner, newOwner) */\n      0xffffffffffffffffffffffffffffffffffffffff\n      and\n      0x8be0079c531659141344cd1fd0a4f28419497f9722a3daafe3b4186f6b6457e0\n      mload(0x40)\n      mload(0x40)\n      dup1\n      swap2\n      sub\n      swap1\n      log3\n        /* \"@openzeppelin/contracts/access/Ownable.sol\":2489:2613  {... */\n      pop\n        /* \"@openzeppelin/contracts/access/Ownable.sol\":2426:2613  function _transferOwnership(address newOwner) internal virtual {... */\n      pop\n      jump\t// out\n        /* \"contracts/CrossBridge.sol\":2826:3293  function splitSignature (... */\n    tag_107:\n        /* \"contracts/CrossBridge.sol\":2906:2911  uint8 */\n      0x00\n        /* \"contracts/CrossBridge.sol\":2913:2920  bytes32 */\n      dup1\n        /* \"contracts/CrossBridge.sol\":2922:2929  bytes32 */\n      0x00\n        /* \"contracts/CrossBridge.sol\":2963:2965  65 */\n      0x41\n        /* \"contracts/CrossBridge.sol\":2949:2952  sig */\n      dup5\n        /* \"contracts/CrossBridge.sol\":2949:2959  sig.length */\n      mload\n        /* \"contracts/CrossBridge.sol\":2949:2965  sig.length == 65 */\n      eq\n        /* \"contracts/CrossBridge.sol\":2941:2966  require(sig.length == 65) */\n      tag_121\n      jumpi\n      0x00\n      dup1\n      revert\n    tag_121:\n        /* \"contracts/CrossBridge.sol\":2977:2986  bytes32 r */\n      0x00\n        /* \"contracts/CrossBridge.sol\":2996:3005  bytes32 s */\n      dup1\n        /* \"contracts/CrossBridge.sol\":3015:3022  uint8 v */\n      0x00\n        /* \"contracts/CrossBridge.sol\":3106:3108  32 */\n      0x20\n        /* \"contracts/CrossBridge.sol\":3101:3104  sig */\n      dup8\n        /* \"contracts/CrossBridge.sol\":3097:3109  add(sig, 32) */\n      add\n        /* \"contracts/CrossBridge.sol\":3091:3110  mload(add(sig, 32)) */\n      mload\n        /* \"contracts/CrossBridge.sol\":3086:3110  r := mload(add(sig, 32)) */\n      swap3\n      pop\n        /* \"contracts/CrossBridge.sol\":3174:3176  64 */\n      0x40\n        /* \"contracts/CrossBridge.sol\":3169:3172  sig */\n      dup8\n        /* \"contracts/CrossBridge.sol\":3165:3177  add(sig, 64) */\n      add\n        /* \"contracts/CrossBridge.sol\":3159:3178  mload(add(sig, 64)) */\n      mload\n        /* \"contracts/CrossBridge.sol\":3154:3178  s := mload(add(sig, 64)) */\n      swap2\n      pop\n        /* \"contracts/CrossBridge.sol\":3245:3247  96 */\n      0x60\n        /* \"contracts/CrossBridge.sol\":3240:3243  sig */\n      dup8\n        /* \"contracts/CrossBridge.sol\":3236:3248  add(sig, 96) */\n      add\n        /* \"contracts/CrossBridge.sol\":3230:3249  mload(add(sig, 96)) */\n      mload\n        /* \"contracts/CrossBridge.sol\":3227:3228  0 */\n      0x00\n        /* \"contracts/CrossBridge.sol\":3222:3250  byte(0, mload(add(sig, 96))) */\n      byte\n        /* \"contracts/CrossBridge.sol\":3217:3250  v := byte(0, mload(add(sig, 96))) */\n      swap1\n      pop\n        /* \"contracts/CrossBridge.sol\":3278:3279  v */\n      dup1\n        /* \"contracts/CrossBridge.sol\":3281:3282  r */\n      dup4\n        /* \"contracts/CrossBridge.sol\":3284:3285  s */\n      dup4\n        /* \"contracts/CrossBridge.sol\":3270:3286  return (v, r, s) */\n      swap6\n      pop\n      swap6\n      pop\n      swap6\n      pop\n      pop\n      pop\n      pop\n        /* \"contracts/CrossBridge.sol\":2826:3293  function splitSignature (... */\n      swap2\n      swap4\n      swap1\n      swap3\n      pop\n      jump\t// out\n        /* \"@openzeppelin/contracts/utils/Context.sol\":655:751  function _msgSender() internal view virtual returns (address) {... */\n    tag_114:\n        /* \"@openzeppelin/contracts/utils/Context.sol\":708:715  address */\n      0x00\n        /* \"@openzeppelin/contracts/utils/Context.sol\":734:744  msg.sender */\n      caller\n        /* \"@openzeppelin/contracts/utils/Context.sol\":727:744  return msg.sender */\n      swap1\n      pop\n        /* \"@openzeppelin/contracts/utils/Context.sol\":655:751  function _msgSender() internal view virtual returns (address) {... */\n      swap1\n      jump\t// out\n        /* \"#utility.yul\":88:205   */\n    tag_124:\n        /* \"#utility.yul\":197:198   */\n      0x00\n        /* \"#utility.yul\":194:195   */\n      dup1\n        /* \"#utility.yul\":187:199   */\n      revert\n        /* \"#utility.yul\":211:328   */\n    tag_125:\n        /* \"#utility.yul\":320:321   */\n      0x00\n        /* \"#utility.yul\":317:318   */\n      dup1\n        /* \"#utility.yul\":310:322   */\n      revert\n        /* \"#utility.yul\":334:460   */\n    tag_126:\n        /* \"#utility.yul\":371:378   */\n      0x00\n        /* \"#utility.yul\":411:453   */\n      0xffffffffffffffffffffffffffffffffffffffff\n        /* \"#utility.yul\":404:409   */\n      dup3\n        /* \"#utility.yul\":400:454   */\n      and\n        /* \"#utility.yul\":389:454   */\n      swap1\n      pop\n        /* \"#utility.yul\":334:460   */\n      swap2\n      swap1\n      pop\n      jump\t// out\n        /* \"#utility.yul\":466:562   */\n    tag_127:\n        /* \"#utility.yul\":503:510   */\n      0x00\n        /* \"#utility.yul\":532:556   */\n      tag_183\n        /* \"#utility.yul\":550:555   */\n      dup3\n        /* \"#utility.yul\":532:556   */\n      tag_126\n      jump\t// in\n    tag_183:\n        /* \"#utility.yul\":521:556   */\n      swap1\n      pop\n        /* \"#utility.yul\":466:562   */\n      swap2\n      swap1\n      pop\n      jump\t// out\n        /* \"#utility.yul\":568:690   */\n    tag_128:\n        /* \"#utility.yul\":641:665   */\n      tag_185\n        /* \"#utility.yul\":659:664   */\n      dup2\n        /* \"#utility.yul\":641:665   */\n      tag_127\n      jump\t// in\n    tag_185:\n        /* \"#utility.yul\":634:639   */\n      dup2\n        /* \"#utility.yul\":631:666   */\n      eq\n        /* \"#utility.yul\":621:684   */\n      tag_186\n      jumpi\n        /* \"#utility.yul\":680:681   */\n      0x00\n        /* \"#utility.yul\":677:678   */\n      dup1\n        /* \"#utility.yul\":670:682   */\n      revert\n        /* \"#utility.yul\":621:684   */\n    tag_186:\n        /* \"#utility.yul\":568:690   */\n      pop\n      jump\t// out\n        /* \"#utility.yul\":696:835   */\n    tag_129:\n        /* \"#utility.yul\":742:747   */\n      0x00\n        /* \"#utility.yul\":780:786   */\n      dup2\n        /* \"#utility.yul\":767:787   */\n      calldataload\n        /* \"#utility.yul\":758:787   */\n      swap1\n      pop\n        /* \"#utility.yul\":796:829   */\n      tag_188\n        /* \"#utility.yul\":823:828   */\n      dup2\n        /* \"#utility.yul\":796:829   */\n      tag_128\n      jump\t// in\n    tag_188:\n        /* \"#utility.yul\":696:835   */\n      swap3\n      swap2\n      pop\n      pop\n      jump\t// out\n        /* \"#utility.yul\":841:918   */\n    tag_130:\n        /* \"#utility.yul\":878:885   */\n      0x00\n        /* \"#utility.yul\":907:912   */\n      dup2\n        /* \"#utility.yul\":896:912   */\n      swap1\n      pop\n        /* \"#utility.yul\":841:918   */\n      swap2\n      swap1\n      pop\n      jump\t// out\n        /* \"#utility.yul\":924:1046   */\n    tag_131:\n        /* \"#utility.yul\":997:1021   */\n      tag_191\n        /* \"#utility.yul\":1015:1020   */\n      dup2\n        /* \"#utility.yul\":997:1021   */\n      tag_130\n      jump\t// in\n    tag_191:\n        /* \"#utility.yul\":990:995   */\n      dup2\n        /* \"#utility.yul\":987:1022   */\n      eq\n        /* \"#utility.yul\":977:1040   */\n      tag_192\n      jumpi\n        /* \"#utility.yul\":1036:1037   */\n      0x00\n        /* \"#utility.yul\":1033:1034   */\n      dup1\n        /* \"#utility.yul\":1026:1038   */\n      revert\n        /* \"#utility.yul\":977:1040   */\n    tag_192:\n        /* \"#utility.yul\":924:1046   */\n      pop\n      jump\t// out\n        /* \"#utility.yul\":1052:1191   */\n    tag_132:\n        /* \"#utility.yul\":1098:1103   */\n      0x00\n        /* \"#utility.yul\":1136:1142   */\n      dup2\n        /* \"#utility.yul\":1123:1143   */\n      calldataload\n        /* \"#utility.yul\":1114:1143   */\n      swap1\n      pop\n        /* \"#utility.yul\":1152:1185   */\n      tag_194\n        /* \"#utility.yul\":1179:1184   */\n      dup2\n        /* \"#utility.yul\":1152:1185   */\n      tag_131\n      jump\t// in\n    tag_194:\n        /* \"#utility.yul\":1052:1191   */\n      swap3\n      swap2\n      pop\n      pop\n      jump\t// out\n        /* \"#utility.yul\":1197:1314   */\n    tag_133:\n        /* \"#utility.yul\":1306:1307   */\n      0x00\n        /* \"#utility.yul\":1303:1304   */\n      dup1\n        /* \"#utility.yul\":1296:1308   */\n      revert\n        /* \"#utility.yul\":1320:1437   */\n    tag_134:\n        /* \"#utility.yul\":1429:1430   */\n      0x00\n        /* \"#utility.yul\":1426:1427   */\n      dup1\n        /* \"#utility.yul\":1419:1431   */\n      revert\n        /* \"#utility.yul\":1443:1560   */\n    tag_135:\n        /* \"#utility.yul\":1552:1553   */\n      0x00\n        /* \"#utility.yul\":1549:1550   */\n      dup1\n        /* \"#utility.yul\":1542:1554   */\n      revert\n        /* \"#utility.yul\":1579:2131   */\n    tag_136:\n        /* \"#utility.yul\":1636:1644   */\n      0x00\n        /* \"#utility.yul\":1646:1652   */\n      dup1\n        /* \"#utility.yul\":1696:1699   */\n      dup4\n        /* \"#utility.yul\":1689:1693   */\n      0x1f\n        /* \"#utility.yul\":1681:1687   */\n      dup5\n        /* \"#utility.yul\":1677:1694   */\n      add\n        /* \"#utility.yul\":1673:1700   */\n      slt\n        /* \"#utility.yul\":1663:1785   */\n      tag_199\n      jumpi\n        /* \"#utility.yul\":1704:1783   */\n      tag_200\n      tag_133\n      jump\t// in\n    tag_200:\n        /* \"#utility.yul\":1663:1785   */\n    tag_199:\n        /* \"#utility.yul\":1817:1823   */\n      dup3\n        /* \"#utility.yul\":1804:1824   */\n      calldataload\n        /* \"#utility.yul\":1794:1824   */\n      swap1\n      pop\n        /* \"#utility.yul\":1847:1865   */\n      0xffffffffffffffff\n        /* \"#utility.yul\":1839:1845   */\n      dup2\n        /* \"#utility.yul\":1836:1866   */\n      gt\n        /* \"#utility.yul\":1833:1950   */\n      iszero\n      tag_201\n      jumpi\n        /* \"#utility.yul\":1869:1948   */\n      tag_202\n      tag_134\n      jump\t// in\n    tag_202:\n        /* \"#utility.yul\":1833:1950   */\n    tag_201:\n        /* \"#utility.yul\":1983:1987   */\n      0x20\n        /* \"#utility.yul\":1975:1981   */\n      dup4\n        /* \"#utility.yul\":1971:1988   */\n      add\n        /* \"#utility.yul\":1959:1988   */\n      swap2\n      pop\n        /* \"#utility.yul\":2037:2040   */\n      dup4\n        /* \"#utility.yul\":2029:2033   */\n      0x01\n        /* \"#utility.yul\":2021:2027   */\n      dup3\n        /* \"#utility.yul\":2017:2034   */\n      mul\n        /* \"#utility.yul\":2007:2015   */\n      dup4\n        /* \"#utility.yul\":2003:2035   */\n      add\n        /* \"#utility.yul\":2000:2041   */\n      gt\n        /* \"#utility.yul\":1997:2125   */\n      iszero\n      tag_203\n      jumpi\n        /* \"#utility.yul\":2044:2123   */\n      tag_204\n      tag_135\n      jump\t// in\n    tag_204:\n        /* \"#utility.yul\":1997:2125   */\n    tag_203:\n        /* \"#utility.yul\":1579:2131   */\n      swap3\n      pop\n      swap3\n      swap1\n      pop\n      jump\t// out\n        /* \"#utility.yul\":2137:3246   */\n    tag_15:\n        /* \"#utility.yul\":2243:2249   */\n      0x00\n        /* \"#utility.yul\":2251:2257   */\n      dup1\n        /* \"#utility.yul\":2259:2265   */\n      0x00\n        /* \"#utility.yul\":2267:2273   */\n      dup1\n        /* \"#utility.yul\":2275:2281   */\n      0x00\n        /* \"#utility.yul\":2283:2289   */\n      dup1\n        /* \"#utility.yul\":2332:2335   */\n      0xa0\n        /* \"#utility.yul\":2320:2329   */\n      dup8\n        /* \"#utility.yul\":2311:2318   */\n      dup10\n        /* \"#utility.yul\":2307:2330   */\n      sub\n        /* \"#utility.yul\":2303:2336   */\n      slt\n        /* \"#utility.yul\":2300:2420   */\n      iszero\n      tag_206\n      jumpi\n        /* \"#utility.yul\":2339:2418   */\n      tag_207\n      tag_124\n      jump\t// in\n    tag_207:\n        /* \"#utility.yul\":2300:2420   */\n    tag_206:\n        /* \"#utility.yul\":2459:2460   */\n      0x00\n        /* \"#utility.yul\":2484:2537   */\n      tag_208\n        /* \"#utility.yul\":2529:2536   */\n      dup10\n        /* \"#utility.yul\":2520:2526   */\n      dup3\n        /* \"#utility.yul\":2509:2518   */\n      dup11\n        /* \"#utility.yul\":2505:2527   */\n      add\n        /* \"#utility.yul\":2484:2537   */\n      tag_129\n      jump\t// in\n    tag_208:\n        /* \"#utility.yul\":2474:2537   */\n      swap7\n      pop\n        /* \"#utility.yul\":2430:2547   */\n      pop\n        /* \"#utility.yul\":2586:2588   */\n      0x20\n        /* \"#utility.yul\":2612:2665   */\n      tag_209\n        /* \"#utility.yul\":2657:2664   */\n      dup10\n        /* \"#utility.yul\":2648:2654   */\n      dup3\n        /* \"#utility.yul\":2637:2646   */\n      dup11\n        /* \"#utility.yul\":2633:2655   */\n      add\n        /* \"#utility.yul\":2612:2665   */\n      tag_129\n      jump\t// in\n    tag_209:\n        /* \"#utility.yul\":2602:2665   */\n      swap6\n      pop\n        /* \"#utility.yul\":2557:2675   */\n      pop\n        /* \"#utility.yul\":2714:2716   */\n      0x40\n        /* \"#utility.yul\":2740:2793   */\n      tag_210\n        /* \"#utility.yul\":2785:2792   */\n      dup10\n        /* \"#utility.yul\":2776:2782   */\n      dup3\n        /* \"#utility.yul\":2765:2774   */\n      dup11\n        /* \"#utility.yul\":2761:2783   */\n      add\n        /* \"#utility.yul\":2740:2793   */\n      tag_132\n      jump\t// in\n    tag_210:\n        /* \"#utility.yul\":2730:2793   */\n      swap5\n      pop\n        /* \"#utility.yul\":2685:2803   */\n      pop\n        /* \"#utility.yul\":2842:2844   */\n      0x60\n        /* \"#utility.yul\":2868:2921   */\n      tag_211\n        /* \"#utility.yul\":2913:2920   */\n      dup10\n        /* \"#utility.yul\":2904:2910   */\n      dup3\n        /* \"#utility.yul\":2893:2902   */\n      dup11\n        /* \"#utility.yul\":2889:2911   */\n      add\n        /* \"#utility.yul\":2868:2921   */\n      tag_132\n      jump\t// in\n    tag_211:\n        /* \"#utility.yul\":2858:2921   */\n      swap4\n      pop\n        /* \"#utility.yul\":2813:2931   */\n      pop\n        /* \"#utility.yul\":2998:3001   */\n      0x80\n        /* \"#utility.yul\":2987:2996   */\n      dup8\n        /* \"#utility.yul\":2983:3002   */\n      add\n        /* \"#utility.yul\":2970:3003   */\n      calldataload\n        /* \"#utility.yul\":3030:3048   */\n      0xffffffffffffffff\n        /* \"#utility.yul\":3022:3028   */\n      dup2\n        /* \"#utility.yul\":3019:3049   */\n      gt\n        /* \"#utility.yul\":3016:3133   */\n      iszero\n      tag_212\n      jumpi\n        /* \"#utility.yul\":3052:3131   */\n      tag_213\n      tag_125\n      jump\t// in\n    tag_213:\n        /* \"#utility.yul\":3016:3133   */\n    tag_212:\n        /* \"#utility.yul\":3165:3229   */\n      tag_214\n        /* \"#utility.yul\":3221:3228   */\n      dup10\n        /* \"#utility.yul\":3212:3218   */\n      dup3\n        /* \"#utility.yul\":3201:3210   */\n      dup11\n        /* \"#utility.yul\":3197:3219   */\n      add\n        /* \"#utility.yul\":3165:3229   */\n      tag_136\n      jump\t// in\n    tag_214:\n        /* \"#utility.yul\":3147:3229   */\n      swap3\n      pop\n      swap3\n      pop\n        /* \"#utility.yul\":2941:3239   */\n      pop\n        /* \"#utility.yul\":2137:3246   */\n      swap3\n      swap6\n      pop\n      swap3\n      swap6\n      pop\n      swap3\n      swap6\n      jump\t// out\n        /* \"#utility.yul\":3252:3726   */\n    tag_21:\n        /* \"#utility.yul\":3320:3326   */\n      0x00\n        /* \"#utility.yul\":3328:3334   */\n      dup1\n        /* \"#utility.yul\":3377:3379   */\n      0x40\n        /* \"#utility.yul\":3365:3374   */\n      dup4\n        /* \"#utility.yul\":3356:3363   */\n      dup6\n        /* \"#utility.yul\":3352:3375   */\n      sub\n        /* \"#utility.yul\":3348:3380   */\n      slt\n        /* \"#utility.yul\":3345:3464   */\n      iszero\n      tag_216\n      jumpi\n        /* \"#utility.yul\":3383:3462   */\n      tag_217\n      tag_124\n      jump\t// in\n    tag_217:\n        /* \"#utility.yul\":3345:3464   */\n    tag_216:\n        /* \"#utility.yul\":3503:3504   */\n      0x00\n        /* \"#utility.yul\":3528:3581   */\n      tag_218\n        /* \"#utility.yul\":3573:3580   */\n      dup6\n        /* \"#utility.yul\":3564:3570   */\n      dup3\n        /* \"#utility.yul\":3553:3562   */\n      dup7\n        /* \"#utility.yul\":3549:3571   */\n      add\n        /* \"#utility.yul\":3528:3581   */\n      tag_129\n      jump\t// in\n    tag_218:\n        /* \"#utility.yul\":3518:3581   */\n      swap3\n      pop\n        /* \"#utility.yul\":3474:3591   */\n      pop\n        /* \"#utility.yul\":3630:3632   */\n      0x20\n        /* \"#utility.yul\":3656:3709   */\n      tag_219\n        /* \"#utility.yul\":3701:3708   */\n      dup6\n        /* \"#utility.yul\":3692:3698   */\n      dup3\n        /* \"#utility.yul\":3681:3690   */\n      dup7\n        /* \"#utility.yul\":3677:3699   */\n      add\n        /* \"#utility.yul\":3656:3709   */\n      tag_132\n      jump\t// in\n    tag_219:\n        /* \"#utility.yul\":3646:3709   */\n      swap2\n      pop\n        /* \"#utility.yul\":3601:3719   */\n      pop\n        /* \"#utility.yul\":3252:3726   */\n      swap3\n      pop\n      swap3\n      swap1\n      pop\n      jump\t// out\n        /* \"#utility.yul\":3732:3822   */\n    tag_137:\n        /* \"#utility.yul\":3766:3773   */\n      0x00\n        /* \"#utility.yul\":3809:3814   */\n      dup2\n        /* \"#utility.yul\":3802:3815   */\n      iszero\n        /* \"#utility.yul\":3795:3816   */\n      iszero\n        /* \"#utility.yul\":3784:3816   */\n      swap1\n      pop\n        /* \"#utility.yul\":3732:3822   */\n      swap2\n      swap1\n      pop\n      jump\t// out\n        /* \"#utility.yul\":3828:3937   */\n    tag_138:\n        /* \"#utility.yul\":3909:3930   */\n      tag_222\n        /* \"#utility.yul\":3924:3929   */\n      dup2\n        /* \"#utility.yul\":3909:3930   */\n      tag_137\n      jump\t// in\n    tag_222:\n        /* \"#utility.yul\":3904:3907   */\n      dup3\n        /* \"#utility.yul\":3897:3931   */\n      mstore\n        /* \"#utility.yul\":3828:3937   */\n      pop\n      pop\n      jump\t// out\n        /* \"#utility.yul\":3943:4153   */\n    tag_24:\n        /* \"#utility.yul\":4030:4034   */\n      0x00\n        /* \"#utility.yul\":4068:4070   */\n      0x20\n        /* \"#utility.yul\":4057:4066   */\n      dup3\n        /* \"#utility.yul\":4053:4071   */\n      add\n        /* \"#utility.yul\":4045:4071   */\n      swap1\n      pop\n        /* \"#utility.yul\":4081:4146   */\n      tag_224\n        /* \"#utility.yul\":4143:4144   */\n      0x00\n        /* \"#utility.yul\":4132:4141   */\n      dup4\n        /* \"#utility.yul\":4128:4145   */\n      add\n        /* \"#utility.yul\":4119:4125   */\n      dup5\n        /* \"#utility.yul\":4081:4146   */\n      tag_138\n      jump\t// in\n    tag_224:\n        /* \"#utility.yul\":3943:4153   */\n      swap3\n      swap2\n      pop\n      pop\n      jump\t// out\n        /* \"#utility.yul\":4159:4976   */\n    tag_27:\n        /* \"#utility.yul\":4247:4253   */\n      0x00\n        /* \"#utility.yul\":4255:4261   */\n      dup1\n        /* \"#utility.yul\":4263:4269   */\n      0x00\n        /* \"#utility.yul\":4271:4277   */\n      dup1\n        /* \"#utility.yul\":4320:4322   */\n      0x60\n        /* \"#utility.yul\":4308:4317   */\n      dup6\n        /* \"#utility.yul\":4299:4306   */\n      dup8\n        /* \"#utility.yul\":4295:4318   */\n      sub\n        /* \"#utility.yul\":4291:4323   */\n      slt\n        /* \"#utility.yul\":4288:4407   */\n      iszero\n      tag_226\n      jumpi\n        /* \"#utility.yul\":4326:4405   */\n      tag_227\n      tag_124\n      jump\t// in\n    tag_227:\n        /* \"#utility.yul\":4288:4407   */\n    tag_226:\n        /* \"#utility.yul\":4446:4447   */\n      0x00\n        /* \"#utility.yul\":4471:4524   */\n      tag_228\n        /* \"#utility.yul\":4516:4523   */\n      dup8\n        /* \"#utility.yul\":4507:4513   */\n      dup3\n        /* \"#utility.yul\":4496:4505   */\n      dup9\n        /* \"#utility.yul\":4492:4514   */\n      add\n        /* \"#utility.yul\":4471:4524   */\n      tag_132\n      jump\t// in\n    tag_228:\n        /* \"#utility.yul\":4461:4524   */\n      swap5\n      pop\n        /* \"#utility.yul\":4417:4534   */\n      pop\n        /* \"#utility.yul\":4573:4575   */\n      0x20\n        /* \"#utility.yul\":4599:4652   */\n      tag_229\n        /* \"#utility.yul\":4644:4651   */\n      dup8\n        /* \"#utility.yul\":4635:4641   */\n      dup3\n        /* \"#utility.yul\":4624:4633   */\n      dup9\n        /* \"#utility.yul\":4620:4642   */\n      add\n        /* \"#utility.yul\":4599:4652   */\n      tag_132\n      jump\t// in\n    tag_229:\n        /* \"#utility.yul\":4589:4652   */\n      swap4\n      pop\n        /* \"#utility.yul\":4544:4662   */\n      pop\n        /* \"#utility.yul\":4729:4731   */\n      0x40\n        /* \"#utility.yul\":4718:4727   */\n      dup6\n        /* \"#utility.yul\":4714:4732   */\n      add\n        /* \"#utility.yul\":4701:4733   */\n      calldataload\n        /* \"#utility.yul\":4760:4778   */\n      0xffffffffffffffff\n        /* \"#utility.yul\":4752:4758   */\n      dup2\n        /* \"#utility.yul\":4749:4779   */\n      gt\n        /* \"#utility.yul\":4746:4863   */\n      iszero\n      tag_230\n      jumpi\n        /* \"#utility.yul\":4782:4861   */\n      tag_231\n      tag_125\n      jump\t// in\n    tag_231:\n        /* \"#utility.yul\":4746:4863   */\n    tag_230:\n        /* \"#utility.yul\":4895:4959   */\n      tag_232\n        /* \"#utility.yul\":4951:4958   */\n      dup8\n        /* \"#utility.yul\":4942:4948   */\n      dup3\n        /* \"#utility.yul\":4931:4940   */\n      dup9\n        /* \"#utility.yul\":4927:4949   */\n      add\n        /* \"#utility.yul\":4895:4959   */\n      tag_136\n      jump\t// in\n    tag_232:\n        /* \"#utility.yul\":4877:4959   */\n      swap3\n      pop\n      swap3\n      pop\n        /* \"#utility.yul\":4672:4969   */\n      pop\n        /* \"#utility.yul\":4159:4976   */\n      swap3\n      swap6\n      swap2\n      swap5\n      pop\n      swap3\n      pop\n      jump\t// out\n        /* \"#utility.yul\":4982:5100   */\n    tag_139:\n        /* \"#utility.yul\":5069:5093   */\n      tag_234\n        /* \"#utility.yul\":5087:5092   */\n      dup2\n        /* \"#utility.yul\":5069:5093   */\n      tag_127\n      jump\t// in\n    tag_234:\n        /* \"#utility.yul\":5064:5067   */\n      dup3\n        /* \"#utility.yul\":5057:5094   */\n      mstore\n        /* \"#utility.yul\":4982:5100   */\n      pop\n      pop\n      jump\t// out\n        /* \"#utility.yul\":5106:5328   */\n    tag_32:\n        /* \"#utility.yul\":5199:5203   */\n      0x00\n        /* \"#utility.yul\":5237:5239   */\n      0x20\n        /* \"#utility.yul\":5226:5235   */\n      dup3\n        /* \"#utility.yul\":5222:5240   */\n      add\n        /* \"#utility.yul\":5214:5240   */\n      swap1\n      pop\n        /* \"#utility.yul\":5250:5321   */\n      tag_236\n        /* \"#utility.yul\":5318:5319   */\n      0x00\n        /* \"#utility.yul\":5307:5316   */\n      dup4\n        /* \"#utility.yul\":5303:5320   */\n      add\n        /* \"#utility.yul\":5294:5300   */\n      dup5\n        /* \"#utility.yul\":5250:5321   */\n      tag_139\n      jump\t// in\n    tag_236:\n        /* \"#utility.yul\":5106:5328   */\n      swap3\n      swap2\n      pop\n      pop\n      jump\t// out\n        /* \"#utility.yul\":5334:5452   */\n    tag_140:\n        /* \"#utility.yul\":5421:5445   */\n      tag_238\n        /* \"#utility.yul\":5439:5444   */\n      dup2\n        /* \"#utility.yul\":5421:5445   */\n      tag_130\n      jump\t// in\n    tag_238:\n        /* \"#utility.yul\":5416:5419   */\n      dup3\n        /* \"#utility.yul\":5409:5446   */\n      mstore\n        /* \"#utility.yul\":5334:5452   */\n      pop\n      pop\n      jump\t// out\n        /* \"#utility.yul\":5458:5680   */\n    tag_36:\n        /* \"#utility.yul\":5551:5555   */\n      0x00\n        /* \"#utility.yul\":5589:5591   */\n      0x20\n        /* \"#utility.yul\":5578:5587   */\n      dup3\n        /* \"#utility.yul\":5574:5592   */\n      add\n        /* \"#utility.yul\":5566:5592   */\n      swap1\n      pop\n        /* \"#utility.yul\":5602:5673   */\n      tag_240\n        /* \"#utility.yul\":5670:5671   */\n      0x00\n        /* \"#utility.yul\":5659:5668   */\n      dup4\n        /* \"#utility.yul\":5655:5672   */\n      add\n        /* \"#utility.yul\":5646:5652   */\n      dup5\n        /* \"#utility.yul\":5602:5673   */\n      tag_140\n      jump\t// in\n    tag_240:\n        /* \"#utility.yul\":5458:5680   */\n      swap3\n      swap2\n      pop\n      pop\n      jump\t// out\n        /* \"#utility.yul\":5686:6015   */\n    tag_39:\n        /* \"#utility.yul\":5745:5751   */\n      0x00\n        /* \"#utility.yul\":5794:5796   */\n      0x20\n        /* \"#utility.yul\":5782:5791   */\n      dup3\n        /* \"#utility.yul\":5773:5780   */\n      dup5\n        /* \"#utility.yul\":5769:5792   */\n      sub\n        /* \"#utility.yul\":5765:5797   */\n      slt\n        /* \"#utility.yul\":5762:5881   */\n      iszero\n      tag_242\n      jumpi\n        /* \"#utility.yul\":5800:5879   */\n      tag_243\n      tag_124\n      jump\t// in\n    tag_243:\n        /* \"#utility.yul\":5762:5881   */\n    tag_242:\n        /* \"#utility.yul\":5920:5921   */\n      0x00\n        /* \"#utility.yul\":5945:5998   */\n      tag_244\n        /* \"#utility.yul\":5990:5997   */\n      dup5\n        /* \"#utility.yul\":5981:5987   */\n      dup3\n        /* \"#utility.yul\":5970:5979   */\n      dup6\n        /* \"#utility.yul\":5966:5988   */\n      add\n        /* \"#utility.yul\":5945:5998   */\n      tag_129\n      jump\t// in\n    tag_244:\n        /* \"#utility.yul\":5935:5998   */\n      swap2\n      pop\n        /* \"#utility.yul\":5891:6008   */\n      pop\n        /* \"#utility.yul\":5686:6015   */\n      swap3\n      swap2\n      pop\n      pop\n      jump\t// out\n        /* \"#utility.yul\":6021:6081   */\n    tag_141:\n        /* \"#utility.yul\":6049:6052   */\n      0x00\n        /* \"#utility.yul\":6070:6075   */\n      dup2\n        /* \"#utility.yul\":6063:6075   */\n      swap1\n      pop\n        /* \"#utility.yul\":6021:6081   */\n      swap2\n      swap1\n      pop\n      jump\t// out\n        /* \"#utility.yul\":6087:6229   */\n    tag_142:\n        /* \"#utility.yul\":6137:6146   */\n      0x00\n        /* \"#utility.yul\":6170:6223   */\n      tag_247\n        /* \"#utility.yul\":6188:6222   */\n      tag_248\n        /* \"#utility.yul\":6197:6221   */\n      tag_249\n        /* \"#utility.yul\":6215:6220   */\n      dup5\n        /* \"#utility.yul\":6197:6221   */\n      tag_126\n      jump\t// in\n    tag_249:\n        /* \"#utility.yul\":6188:6222   */\n      tag_141\n      jump\t// in\n    tag_248:\n        /* \"#utility.yul\":6170:6223   */\n      tag_126\n      jump\t// in\n    tag_247:\n        /* \"#utility.yul\":6157:6223   */\n      swap1\n      pop\n        /* \"#utility.yul\":6087:6229   */\n      swap2\n      swap1\n      pop\n      jump\t// out\n        /* \"#utility.yul\":6235:6361   */\n    tag_143:\n        /* \"#utility.yul\":6285:6294   */\n      0x00\n        /* \"#utility.yul\":6318:6355   */\n      tag_251\n        /* \"#utility.yul\":6349:6354   */\n      dup3\n        /* \"#utility.yul\":6318:6355   */\n      tag_142\n      jump\t// in\n    tag_251:\n        /* \"#utility.yul\":6305:6355   */\n      swap1\n      pop\n        /* \"#utility.yul\":6235:6361   */\n      swap2\n      swap1\n      pop\n      jump\t// out\n        /* \"#utility.yul\":6367:6512   */\n    tag_144:\n        /* \"#utility.yul\":6436:6445   */\n      0x00\n        /* \"#utility.yul\":6469:6506   */\n      tag_253\n        /* \"#utility.yul\":6500:6505   */\n      dup3\n        /* \"#utility.yul\":6469:6506   */\n      tag_143\n      jump\t// in\n    tag_253:\n        /* \"#utility.yul\":6456:6506   */\n      swap1\n      pop\n        /* \"#utility.yul\":6367:6512   */\n      swap2\n      swap1\n      pop\n      jump\t// out\n        /* \"#utility.yul\":6518:6687   */\n    tag_145:\n        /* \"#utility.yul\":6624:6680   */\n      tag_255\n        /* \"#utility.yul\":6674:6679   */\n      dup2\n        /* \"#utility.yul\":6624:6680   */\n      tag_144\n      jump\t// in\n    tag_255:\n        /* \"#utility.yul\":6619:6622   */\n      dup3\n        /* \"#utility.yul\":6612:6681   */\n      mstore\n        /* \"#utility.yul\":6518:6687   */\n      pop\n      pop\n      jump\t// out\n        /* \"#utility.yul\":6693:6953   */\n    tag_47:\n        /* \"#utility.yul\":6805:6809   */\n      0x00\n        /* \"#utility.yul\":6843:6845   */\n      0x20\n        /* \"#utility.yul\":6832:6841   */\n      dup3\n        /* \"#utility.yul\":6828:6846   */\n      add\n        /* \"#utility.yul\":6820:6846   */\n      swap1\n      pop\n        /* \"#utility.yul\":6856:6946   */\n      tag_257\n        /* \"#utility.yul\":6943:6944   */\n      0x00\n        /* \"#utility.yul\":6932:6941   */\n      dup4\n        /* \"#utility.yul\":6928:6945   */\n      add\n        /* \"#utility.yul\":6919:6925   */\n      dup5\n        /* \"#utility.yul\":6856:6946   */\n      tag_145\n      jump\t// in\n    tag_257:\n        /* \"#utility.yul\":6693:6953   */\n      swap3\n      swap2\n      pop\n      pop\n      jump\t// out\n        /* \"#utility.yul\":6959:7128   */\n    tag_146:\n        /* \"#utility.yul\":7043:7054   */\n      0x00\n        /* \"#utility.yul\":7077:7083   */\n      dup3\n        /* \"#utility.yul\":7072:7075   */\n      dup3\n        /* \"#utility.yul\":7065:7084   */\n      mstore\n        /* \"#utility.yul\":7117:7121   */\n      0x20\n        /* \"#utility.yul\":7112:7115   */\n      dup3\n        /* \"#utility.yul\":7108:7122   */\n      add\n        /* \"#utility.yul\":7093:7122   */\n      swap1\n      pop\n        /* \"#utility.yul\":6959:7128   */\n      swap3\n      swap2\n      pop\n      pop\n      jump\t// out\n        /* \"#utility.yul\":7134:7295   */\n    tag_147:\n        /* \"#utility.yul\":7274:7287   */\n      0x4f6e6c792041646d696e21000000000000000000000000000000000000000000\n        /* \"#utility.yul\":7270:7271   */\n      0x00\n        /* \"#utility.yul\":7262:7268   */\n      dup3\n        /* \"#utility.yul\":7258:7272   */\n      add\n        /* \"#utility.yul\":7251:7288   */\n      mstore\n        /* \"#utility.yul\":7134:7295   */\n      pop\n      jump\t// out\n        /* \"#utility.yul\":7301:7667   */\n    tag_148:\n        /* \"#utility.yul\":7443:7446   */\n      0x00\n        /* \"#utility.yul\":7464:7531   */\n      tag_261\n        /* \"#utility.yul\":7528:7530   */\n      0x0b\n        /* \"#utility.yul\":7523:7526   */\n      dup4\n        /* \"#utility.yul\":7464:7531   */\n      tag_146\n      jump\t// in\n    tag_261:\n        /* \"#utility.yul\":7457:7531   */\n      swap2\n      pop\n        /* \"#utility.yul\":7540:7633   */\n      tag_262\n        /* \"#utility.yul\":7629:7632   */\n      dup3\n        /* \"#utility.yul\":7540:7633   */\n      tag_147\n      jump\t// in\n    tag_262:\n        /* \"#utility.yul\":7658:7660   */\n      0x20\n        /* \"#utility.yul\":7653:7656   */\n      dup3\n        /* \"#utility.yul\":7649:7661   */\n      add\n        /* \"#utility.yul\":7642:7661   */\n      swap1\n      pop\n        /* \"#utility.yul\":7301:7667   */\n      swap2\n      swap1\n      pop\n      jump\t// out\n        /* \"#utility.yul\":7673:8092   */\n    tag_51:\n        /* \"#utility.yul\":7839:7843   */\n      0x00\n        /* \"#utility.yul\":7877:7879   */\n      0x20\n        /* \"#utility.yul\":7866:7875   */\n      dup3\n        /* \"#utility.yul\":7862:7880   */\n      add\n        /* \"#utility.yul\":7854:7880   */\n      swap1\n      pop\n        /* \"#utility.yul\":7926:7935   */\n      dup2\n        /* \"#utility.yul\":7920:7924   */\n      dup2\n        /* \"#utility.yul\":7916:7936   */\n      sub\n        /* \"#utility.yul\":7912:7913   */\n      0x00\n        /* \"#utility.yul\":7901:7910   */\n      dup4\n        /* \"#utility.yul\":7897:7914   */\n      add\n        /* \"#utility.yul\":7890:7937   */\n      mstore\n        /* \"#utility.yul\":7954:8085   */\n      tag_264\n        /* \"#utility.yul\":8080:8084   */\n      dup2\n        /* \"#utility.yul\":7954:8085   */\n      tag_148\n      jump\t// in\n    tag_264:\n        /* \"#utility.yul\":7946:8085   */\n      swap1\n      pop\n        /* \"#utility.yul\":7673:8092   */\n      swap2\n      swap1\n      pop\n      jump\t// out\n        /* \"#utility.yul\":8098:8192   */\n    tag_149:\n        /* \"#utility.yul\":8131:8139   */\n      0x00\n        /* \"#utility.yul\":8179:8184   */\n      dup2\n        /* \"#utility.yul\":8175:8177   */\n      0x60\n        /* \"#utility.yul\":8171:8185   */\n      shl\n        /* \"#utility.yul\":8150:8185   */\n      swap1\n      pop\n        /* \"#utility.yul\":8098:8192   */\n      swap2\n      swap1\n      pop\n      jump\t// out\n        /* \"#utility.yul\":8198:8292   */\n    tag_150:\n        /* \"#utility.yul\":8237:8244   */\n      0x00\n        /* \"#utility.yul\":8266:8286   */\n      tag_267\n        /* \"#utility.yul\":8280:8285   */\n      dup3\n        /* \"#utility.yul\":8266:8286   */\n      tag_149\n      jump\t// in\n    tag_267:\n        /* \"#utility.yul\":8255:8286   */\n      swap1\n      pop\n        /* \"#utility.yul\":8198:8292   */\n      swap2\n      swap1\n      pop\n      jump\t// out\n        /* \"#utility.yul\":8298:8398   */\n    tag_151:\n        /* \"#utility.yul\":8337:8344   */\n      0x00\n        /* \"#utility.yul\":8366:8392   */\n      tag_269\n        /* \"#utility.yul\":8386:8391   */\n      dup3\n        /* \"#utility.yul\":8366:8392   */\n      tag_150\n      jump\t// in\n    tag_269:\n        /* \"#utility.yul\":8355:8392   */\n      swap1\n      pop\n        /* \"#utility.yul\":8298:8398   */\n      swap2\n      swap1\n      pop\n      jump\t// out\n        /* \"#utility.yul\":8404:8561   */\n    tag_152:\n        /* \"#utility.yul\":8509:8554   */\n      tag_271\n        /* \"#utility.yul\":8529:8553   */\n      tag_272\n        /* \"#utility.yul\":8547:8552   */\n      dup3\n        /* \"#utility.yul\":8529:8553   */\n      tag_127\n      jump\t// in\n    tag_272:\n        /* \"#utility.yul\":8509:8554   */\n      tag_151\n      jump\t// in\n    tag_271:\n        /* \"#utility.yul\":8504:8507   */\n      dup3\n        /* \"#utility.yul\":8497:8555   */\n      mstore\n        /* \"#utility.yul\":8404:8561   */\n      pop\n      pop\n      jump\t// out\n        /* \"#utility.yul\":8567:8646   */\n    tag_153:\n        /* \"#utility.yul\":8606:8613   */\n      0x00\n        /* \"#utility.yul\":8635:8640   */\n      dup2\n        /* \"#utility.yul\":8624:8640   */\n      swap1\n      pop\n        /* \"#utility.yul\":8567:8646   */\n      swap2\n      swap1\n      pop\n      jump\t// out\n        /* \"#utility.yul\":8652:8809   */\n    tag_154:\n        /* \"#utility.yul\":8757:8802   */\n      tag_275\n        /* \"#utility.yul\":8777:8801   */\n      tag_276\n        /* \"#utility.yul\":8795:8800   */\n      dup3\n        /* \"#utility.yul\":8777:8801   */\n      tag_130\n      jump\t// in\n    tag_276:\n        /* \"#utility.yul\":8757:8802   */\n      tag_153\n      jump\t// in\n    tag_275:\n        /* \"#utility.yul\":8752:8755   */\n      dup3\n        /* \"#utility.yul\":8745:8803   */\n      mstore\n        /* \"#utility.yul\":8652:8809   */\n      pop\n      pop\n      jump\t// out\n        /* \"#utility.yul\":8815:9494   */\n    tag_54:\n        /* \"#utility.yul\":9011:9014   */\n      0x00\n        /* \"#utility.yul\":9026:9101   */\n      tag_278\n        /* \"#utility.yul\":9097:9100   */\n      dup3\n        /* \"#utility.yul\":9088:9094   */\n      dup8\n        /* \"#utility.yul\":9026:9101   */\n      tag_152\n      jump\t// in\n    tag_278:\n        /* \"#utility.yul\":9126:9128   */\n      0x14\n        /* \"#utility.yul\":9121:9124   */\n      dup3\n        /* \"#utility.yul\":9117:9129   */\n      add\n        /* \"#utility.yul\":9110:9129   */\n      swap2\n      pop\n        /* \"#utility.yul\":9139:9214   */\n      tag_279\n        /* \"#utility.yul\":9210:9213   */\n      dup3\n        /* \"#utility.yul\":9201:9207   */\n      dup7\n        /* \"#utility.yul\":9139:9214   */\n      tag_152\n      jump\t// in\n    tag_279:\n        /* \"#utility.yul\":9239:9241   */\n      0x14\n        /* \"#utility.yul\":9234:9237   */\n      dup3\n        /* \"#utility.yul\":9230:9242   */\n      add\n        /* \"#utility.yul\":9223:9242   */\n      swap2\n      pop\n        /* \"#utility.yul\":9252:9327   */\n      tag_280\n        /* \"#utility.yul\":9323:9326   */\n      dup3\n        /* \"#utility.yul\":9314:9320   */\n      dup6\n        /* \"#utility.yul\":9252:9327   */\n      tag_154\n      jump\t// in\n    tag_280:\n        /* \"#utility.yul\":9352:9354   */\n      0x20\n        /* \"#utility.yul\":9347:9350   */\n      dup3\n        /* \"#utility.yul\":9343:9355   */\n      add\n        /* \"#utility.yul\":9336:9355   */\n      swap2\n      pop\n        /* \"#utility.yul\":9365:9440   */\n      tag_281\n        /* \"#utility.yul\":9436:9439   */\n      dup3\n        /* \"#utility.yul\":9427:9433   */\n      dup5\n        /* \"#utility.yul\":9365:9440   */\n      tag_154\n      jump\t// in\n    tag_281:\n        /* \"#utility.yul\":9465:9467   */\n      0x20\n        /* \"#utility.yul\":9460:9463   */\n      dup3\n        /* \"#utility.yul\":9456:9468   */\n      add\n        /* \"#utility.yul\":9449:9468   */\n      swap2\n      pop\n        /* \"#utility.yul\":9485:9488   */\n      dup2\n        /* \"#utility.yul\":9478:9488   */\n      swap1\n      pop\n        /* \"#utility.yul\":8815:9494   */\n      swap6\n      swap5\n      pop\n      pop\n      pop\n      pop\n      pop\n      jump\t// out\n        /* \"#utility.yul\":9500:9666   */\n    tag_155:\n        /* \"#utility.yul\":9640:9658   */\n      0x57726f6e67205369676e61747572652100000000000000000000000000000000\n        /* \"#utility.yul\":9636:9637   */\n      0x00\n        /* \"#utility.yul\":9628:9634   */\n      dup3\n        /* \"#utility.yul\":9624:9638   */\n      add\n        /* \"#utility.yul\":9617:9659   */\n      mstore\n        /* \"#utility.yul\":9500:9666   */\n      pop\n      jump\t// out\n        /* \"#utility.yul\":9672:10038   */\n    tag_156:\n        /* \"#utility.yul\":9814:9817   */\n      0x00\n        /* \"#utility.yul\":9835:9902   */\n      tag_284\n        /* \"#utility.yul\":9899:9901   */\n      0x10\n        /* \"#utility.yul\":9894:9897   */\n      dup4\n        /* \"#utility.yul\":9835:9902   */\n      tag_146\n      jump\t// in\n    tag_284:\n        /* \"#utility.yul\":9828:9902   */\n      swap2\n      pop\n        /* \"#utility.yul\":9911:10004   */\n      tag_285\n        /* \"#utility.yul\":10000:10003   */\n      dup3\n        /* \"#utility.yul\":9911:10004   */\n      tag_155\n      jump\t// in\n    tag_285:\n        /* \"#utility.yul\":10029:10031   */\n      0x20\n        /* \"#utility.yul\":10024:10027   */\n      dup3\n        /* \"#utility.yul\":10020:10032   */\n      add\n        /* \"#utility.yul\":10013:10032   */\n      swap1\n      pop\n        /* \"#utility.yul\":9672:10038   */\n      swap2\n      swap1\n      pop\n      jump\t// out\n        /* \"#utility.yul\":10044:10463   */\n    tag_60:\n        /* \"#utility.yul\":10210:10214   */\n      0x00\n        /* \"#utility.yul\":10248:10250   */\n      0x20\n        /* \"#utility.yul\":10237:10246   */\n      dup3\n        /* \"#utility.yul\":10233:10251   */\n      add\n        /* \"#utility.yul\":10225:10251   */\n      swap1\n      pop\n        /* \"#utility.yul\":10297:10306   */\n      dup2\n        /* \"#utility.yul\":10291:10295   */\n      dup2\n        /* \"#utility.yul\":10287:10307   */\n      sub\n        /* \"#utility.yul\":10283:10284   */\n      0x00\n        /* \"#utility.yul\":10272:10281   */\n      dup4\n        /* \"#utility.yul\":10268:10285   */\n      add\n        /* \"#utility.yul\":10261:10308   */\n      mstore\n        /* \"#utility.yul\":10325:10456   */\n      tag_287\n        /* \"#utility.yul\":10451:10455   */\n      dup2\n        /* \"#utility.yul\":10325:10456   */\n      tag_156\n      jump\t// in\n    tag_287:\n        /* \"#utility.yul\":10317:10456   */\n      swap1\n      pop\n        /* \"#utility.yul\":10044:10463   */\n      swap2\n      swap1\n      pop\n      jump\t// out\n        /* \"#utility.yul\":10469:10639   */\n    tag_157:\n        /* \"#utility.yul\":10609:10631   */\n      0x416c7265616479205472616e7366657272656421000000000000000000000000\n        /* \"#utility.yul\":10605:10606   */\n      0x00\n        /* \"#utility.yul\":10597:10603   */\n      dup3\n        /* \"#utility.yul\":10593:10607   */\n      add\n        /* \"#utility.yul\":10586:10632   */\n      mstore\n        /* \"#utility.yul\":10469:10639   */\n      pop\n      jump\t// out\n        /* \"#utility.yul\":10645:11011   */\n    tag_158:\n        /* \"#utility.yul\":10787:10790   */\n      0x00\n        /* \"#utility.yul\":10808:10875   */\n      tag_290\n        /* \"#utility.yul\":10872:10874   */\n      0x14\n        /* \"#utility.yul\":10867:10870   */\n      dup4\n        /* \"#utility.yul\":10808:10875   */\n      tag_146\n      jump\t// in\n    tag_290:\n        /* \"#utility.yul\":10801:10875   */\n      swap2\n      pop\n        /* \"#utility.yul\":10884:10977   */\n      tag_291\n        /* \"#utility.yul\":10973:10976   */\n      dup3\n        /* \"#utility.yul\":10884:10977   */\n      tag_157\n      jump\t// in\n    tag_291:\n        /* \"#utility.yul\":11002:11004   */\n      0x20\n        /* \"#utility.yul\":10997:11000   */\n      dup3\n        /* \"#utility.yul\":10993:11005   */\n      add\n        /* \"#utility.yul\":10986:11005   */\n      swap1\n      pop\n        /* \"#utility.yul\":10645:11011   */\n      swap2\n      swap1\n      pop\n      jump\t// out\n        /* \"#utility.yul\":11017:11436   */\n    tag_63:\n        /* \"#utility.yul\":11183:11187   */\n      0x00\n        /* \"#utility.yul\":11221:11223   */\n      0x20\n        /* \"#utility.yul\":11210:11219   */\n      dup3\n        /* \"#utility.yul\":11206:11224   */\n      add\n        /* \"#utility.yul\":11198:11224   */\n      swap1\n      pop\n        /* \"#utility.yul\":11270:11279   */\n      dup2\n        /* \"#utility.yul\":11264:11268   */\n      dup2\n        /* \"#utility.yul\":11260:11280   */\n      sub\n        /* \"#utility.yul\":11256:11257   */\n      0x00\n        /* \"#utility.yul\":11245:11254   */\n      dup4\n        /* \"#utility.yul\":11241:11258   */\n      add\n        /* \"#utility.yul\":11234:11281   */\n      mstore\n        /* \"#utility.yul\":11298:11429   */\n      tag_293\n        /* \"#utility.yul\":11424:11428   */\n      dup2\n        /* \"#utility.yul\":11298:11429   */\n      tag_158\n      jump\t// in\n    tag_293:\n        /* \"#utility.yul\":11290:11429   */\n      swap1\n      pop\n        /* \"#utility.yul\":11017:11436   */\n      swap2\n      swap1\n      pop\n      jump\t// out\n        /* \"#utility.yul\":11442:11774   */\n    tag_65:\n        /* \"#utility.yul\":11563:11567   */\n      0x00\n        /* \"#utility.yul\":11601:11603   */\n      0x40\n        /* \"#utility.yul\":11590:11599   */\n      dup3\n        /* \"#utility.yul\":11586:11604   */\n      add\n        /* \"#utility.yul\":11578:11604   */\n      swap1\n      pop\n        /* \"#utility.yul\":11614:11685   */\n      tag_295\n        /* \"#utility.yul\":11682:11683   */\n      0x00\n        /* \"#utility.yul\":11671:11680   */\n      dup4\n        /* \"#utility.yul\":11667:11684   */\n      add\n        /* \"#utility.yul\":11658:11664   */\n      dup6\n        /* \"#utility.yul\":11614:11685   */\n      tag_139\n      jump\t// in\n    tag_295:\n        /* \"#utility.yul\":11695:11767   */\n      tag_296\n        /* \"#utility.yul\":11763:11765   */\n      0x20\n        /* \"#utility.yul\":11752:11761   */\n      dup4\n        /* \"#utility.yul\":11748:11766   */\n      add\n        /* \"#utility.yul\":11739:11745   */\n      dup5\n        /* \"#utility.yul\":11695:11767   */\n      tag_140\n      jump\t// in\n    tag_296:\n        /* \"#utility.yul\":11442:11774   */\n      swap4\n      swap3\n      pop\n      pop\n      pop\n      jump\t// out\n        /* \"#utility.yul\":11780:11960   */\n    tag_71:\n        /* \"#utility.yul\":11828:11905   */\n      0x4e487b7100000000000000000000000000000000000000000000000000000000\n        /* \"#utility.yul\":11825:11826   */\n      0x00\n        /* \"#utility.yul\":11818:11906   */\n      mstore\n        /* \"#utility.yul\":11925:11929   */\n      0x21\n        /* \"#utility.yul\":11922:11923   */\n      0x04\n        /* \"#utility.yul\":11915:11930   */\n      mstore\n        /* \"#utility.yul\":11949:11953   */\n      0x24\n        /* \"#utility.yul\":11946:11947   */\n      0x00\n        /* \"#utility.yul\":11939:11954   */\n      revert\n        /* \"#utility.yul\":11966:12134   */\n    tag_159:\n        /* \"#utility.yul\":12049:12060   */\n      0x00\n        /* \"#utility.yul\":12083:12089   */\n      dup3\n        /* \"#utility.yul\":12078:12081   */\n      dup3\n        /* \"#utility.yul\":12071:12090   */\n      mstore\n        /* \"#utility.yul\":12123:12127   */\n      0x20\n        /* \"#utility.yul\":12118:12121   */\n      dup3\n        /* \"#utility.yul\":12114:12128   */\n      add\n        /* \"#utility.yul\":12099:12128   */\n      swap1\n      pop\n        /* \"#utility.yul\":11966:12134   */\n      swap3\n      swap2\n      pop\n      pop\n      jump\t// out\n        /* \"#utility.yul\":12140:12288   */\n    tag_160:\n        /* \"#utility.yul\":12238:12244   */\n      dup3\n        /* \"#utility.yul\":12233:12236   */\n      dup2\n        /* \"#utility.yul\":12228:12231   */\n      dup4\n        /* \"#utility.yul\":12215:12245   */\n      calldatacopy\n        /* \"#utility.yul\":12279:12280   */\n      0x00\n        /* \"#utility.yul\":12270:12276   */\n      dup4\n        /* \"#utility.yul\":12265:12268   */\n      dup4\n        /* \"#utility.yul\":12261:12277   */\n      add\n        /* \"#utility.yul\":12254:12281   */\n      mstore\n        /* \"#utility.yul\":12140:12288   */\n      pop\n      pop\n      pop\n      jump\t// out\n        /* \"#utility.yul\":12294:12396   */\n    tag_161:\n        /* \"#utility.yul\":12335:12341   */\n      0x00\n        /* \"#utility.yul\":12386:12388   */\n      0x1f\n        /* \"#utility.yul\":12382:12389   */\n      not\n        /* \"#utility.yul\":12377:12379   */\n      0x1f\n        /* \"#utility.yul\":12370:12375   */\n      dup4\n        /* \"#utility.yul\":12366:12380   */\n      add\n        /* \"#utility.yul\":12362:12390   */\n      and\n        /* \"#utility.yul\":12352:12390   */\n      swap1\n      pop\n        /* \"#utility.yul\":12294:12396   */\n      swap2\n      swap1\n      pop\n      jump\t// out\n        /* \"#utility.yul\":12424:12738   */\n    tag_162:\n        /* \"#utility.yul\":12520:12523   */\n      0x00\n        /* \"#utility.yul\":12541:12611   */\n      tag_302\n        /* \"#utility.yul\":12604:12610   */\n      dup4\n        /* \"#utility.yul\":12599:12602   */\n      dup6\n        /* \"#utility.yul\":12541:12611   */\n      tag_159\n      jump\t// in\n    tag_302:\n        /* \"#utility.yul\":12534:12611   */\n      swap4\n      pop\n        /* \"#utility.yul\":12621:12677   */\n      tag_303\n        /* \"#utility.yul\":12670:12676   */\n      dup4\n        /* \"#utility.yul\":12665:12668   */\n      dup6\n        /* \"#utility.yul\":12658:12663   */\n      dup5\n        /* \"#utility.yul\":12621:12677   */\n      tag_160\n      jump\t// in\n    tag_303:\n        /* \"#utility.yul\":12702:12731   */\n      tag_304\n        /* \"#utility.yul\":12724:12730   */\n      dup4\n        /* \"#utility.yul\":12702:12731   */\n      tag_161\n      jump\t// in\n    tag_304:\n        /* \"#utility.yul\":12697:12700   */\n      dup5\n        /* \"#utility.yul\":12693:12732   */\n      add\n        /* \"#utility.yul\":12686:12732   */\n      swap1\n      pop\n        /* \"#utility.yul\":12424:12738   */\n      swap4\n      swap3\n      pop\n      pop\n      pop\n      jump\t// out\n        /* \"#utility.yul\":12744:13626   */\n    tag_73:\n        /* \"#utility.yul\":13005:13009   */\n      0x00\n        /* \"#utility.yul\":13043:13046   */\n      0xc0\n        /* \"#utility.yul\":13032:13041   */\n      dup3\n        /* \"#utility.yul\":13028:13047   */\n      add\n        /* \"#utility.yul\":13020:13047   */\n      swap1\n      pop\n        /* \"#utility.yul\":13057:13128   */\n      tag_306\n        /* \"#utility.yul\":13125:13126   */\n      0x00\n        /* \"#utility.yul\":13114:13123   */\n      dup4\n        /* \"#utility.yul\":13110:13127   */\n      add\n        /* \"#utility.yul\":13101:13107   */\n      dup11\n        /* \"#utility.yul\":13057:13128   */\n      tag_139\n      jump\t// in\n    tag_306:\n        /* \"#utility.yul\":13138:13210   */\n      tag_307\n        /* \"#utility.yul\":13206:13208   */\n      0x20\n        /* \"#utility.yul\":13195:13204   */\n      dup4\n        /* \"#utility.yul\":13191:13209   */\n      add\n        /* \"#utility.yul\":13182:13188   */\n      dup10\n        /* \"#utility.yul\":13138:13210   */\n      tag_139\n      jump\t// in\n    tag_307:\n        /* \"#utility.yul\":13220:13292   */\n      tag_308\n        /* \"#utility.yul\":13288:13290   */\n      0x40\n        /* \"#utility.yul\":13277:13286   */\n      dup4\n        /* \"#utility.yul\":13273:13291   */\n      add\n        /* \"#utility.yul\":13264:13270   */\n      dup9\n        /* \"#utility.yul\":13220:13292   */\n      tag_140\n      jump\t// in\n    tag_308:\n        /* \"#utility.yul\":13302:13374   */\n      tag_309\n        /* \"#utility.yul\":13370:13372   */\n      0x60\n        /* \"#utility.yul\":13359:13368   */\n      dup4\n        /* \"#utility.yul\":13355:13373   */\n      add\n        /* \"#utility.yul\":13346:13352   */\n      dup8\n        /* \"#utility.yul\":13302:13374   */\n      tag_140\n      jump\t// in\n    tag_309:\n        /* \"#utility.yul\":13384:13457   */\n      tag_310\n        /* \"#utility.yul\":13452:13455   */\n      0x80\n        /* \"#utility.yul\":13441:13450   */\n      dup4\n        /* \"#utility.yul\":13437:13456   */\n      add\n        /* \"#utility.yul\":13428:13434   */\n      dup7\n        /* \"#utility.yul\":13384:13457   */\n      tag_140\n      jump\t// in\n    tag_310:\n        /* \"#utility.yul\":13505:13514   */\n      dup2\n        /* \"#utility.yul\":13499:13503   */\n      dup2\n        /* \"#utility.yul\":13495:13515   */\n      sub\n        /* \"#utility.yul\":13489:13492   */\n      0xa0\n        /* \"#utility.yul\":13478:13487   */\n      dup4\n        /* \"#utility.yul\":13474:13493   */\n      add\n        /* \"#utility.yul\":13467:13516   */\n      mstore\n        /* \"#utility.yul\":13533:13619   */\n      tag_311\n        /* \"#utility.yul\":13614:13618   */\n      dup2\n        /* \"#utility.yul\":13605:13611   */\n      dup5\n        /* \"#utility.yul\":13597:13603   */\n      dup7\n        /* \"#utility.yul\":13533:13619   */\n      tag_162\n      jump\t// in\n    tag_311:\n        /* \"#utility.yul\":13525:13619   */\n      swap1\n      pop\n        /* \"#utility.yul\":12744:13626   */\n      swap9\n      swap8\n      pop\n      pop\n      pop\n      pop\n      pop\n      pop\n      pop\n      pop\n      jump\t// out\n        /* \"#utility.yul\":13632:13812   */\n    tag_163:\n        /* \"#utility.yul\":13680:13757   */\n      0x4e487b7100000000000000000000000000000000000000000000000000000000\n        /* \"#utility.yul\":13677:13678   */\n      0x00\n        /* \"#utility.yul\":13670:13758   */\n      mstore\n        /* \"#utility.yul\":13777:13781   */\n      0x11\n        /* \"#utility.yul\":13774:13775   */\n      0x04\n        /* \"#utility.yul\":13767:13782   */\n      mstore\n        /* \"#utility.yul\":13801:13805   */\n      0x24\n        /* \"#utility.yul\":13798:13799   */\n      0x00\n        /* \"#utility.yul\":13791:13806   */\n      revert\n        /* \"#utility.yul\":13818:14051   */\n    tag_93:\n        /* \"#utility.yul\":13857:13860   */\n      0x00\n        /* \"#utility.yul\":13880:13904   */\n      tag_314\n        /* \"#utility.yul\":13898:13903   */\n      dup3\n        /* \"#utility.yul\":13880:13904   */\n      tag_130\n      jump\t// in\n    tag_314:\n        /* \"#utility.yul\":13871:13904   */\n      swap2\n      pop\n        /* \"#utility.yul\":13926:13992   */\n      0xffffffffffffffffffffffffffffffffffffffffffffffffffffffffffffffff\n        /* \"#utility.yul\":13919:13924   */\n      dup3\n        /* \"#utility.yul\":13916:13993   */\n      sub\n        /* \"#utility.yul\":13913:14016   */\n      tag_315\n      jumpi\n        /* \"#utility.yul\":13996:14014   */\n      tag_316\n      tag_163\n      jump\t// in\n    tag_316:\n        /* \"#utility.yul\":13913:14016   */\n    tag_315:\n        /* \"#utility.yul\":14043:14044   */\n      0x01\n        /* \"#utility.yul\":14036:14041   */\n      dup3\n        /* \"#utility.yul\":14032:14045   */\n      add\n        /* \"#utility.yul\":14025:14045   */\n      swap1\n      pop\n        /* \"#utility.yul\":13818:14051   */\n      swap2\n      swap1\n      pop\n      jump\t// out\n        /* \"#utility.yul\":14057:14282   */\n    tag_164:\n        /* \"#utility.yul\":14197:14231   */\n      0x4f776e61626c653a206e6577206f776e657220697320746865207a65726f2061\n        /* \"#utility.yul\":14193:14194   */\n      0x00\n        /* \"#utility.yul\":14185:14191   */\n      dup3\n        /* \"#utility.yul\":14181:14195   */\n      add\n        /* \"#utility.yul\":14174:14232   */\n      mstore\n        /* \"#utility.yul\":14266:14274   */\n      0x6464726573730000000000000000000000000000000000000000000000000000\n        /* \"#utility.yul\":14261:14263   */\n      0x20\n        /* \"#utility.yul\":14253:14259   */\n      dup3\n        /* \"#utility.yul\":14249:14264   */\n      add\n        /* \"#utility.yul\":14242:14275   */\n      mstore\n        /* \"#utility.yul\":14057:14282   */\n      pop\n      jump\t// out\n        /* \"#utility.yul\":14288:14654   */\n    tag_165:\n        /* \"#utility.yul\":14430:14433   */\n      0x00\n        /* \"#utility.yul\":14451:14518   */\n      tag_319\n        /* \"#utility.yul\":14515:14517   */\n      0x26\n        /* \"#utility.yul\":14510:14513   */\n      dup4\n        /* \"#utility.yul\":14451:14518   */\n      tag_146\n      jump\t// in\n    tag_319:\n        /* \"#utility.yul\":14444:14518   */\n      swap2\n      pop\n        /* \"#utility.yul\":14527:14620   */\n      tag_320\n        /* \"#utility.yul\":14616:14619   */\n      dup3\n        /* \"#utility.yul\":14527:14620   */\n      tag_164\n      jump\t// in\n    tag_320:\n        /* \"#utility.yul\":14645:14647   */\n      0x40\n        /* \"#utility.yul\":14640:14643   */\n      dup3\n        /* \"#utility.yul\":14636:14648   */\n      add\n        /* \"#utility.yul\":14629:14648   */\n      swap1\n      pop\n        /* \"#utility.yul\":14288:14654   */\n      swap2\n      swap1\n      pop\n      jump\t// out\n        /* \"#utility.yul\":14660:15079   */\n    tag_100:\n        /* \"#utility.yul\":14826:14830   */\n      0x00\n        /* \"#utility.yul\":14864:14866   */\n      0x20\n        /* \"#utility.yul\":14853:14862   */\n      dup3\n        /* \"#utility.yul\":14849:14867   */\n      add\n        /* \"#utility.yul\":14841:14867   */\n      swap1\n      pop\n        /* \"#utility.yul\":14913:14922   */\n      dup2\n        /* \"#utility.yul\":14907:14911   */\n      dup2\n        /* \"#utility.yul\":14903:14923   */\n      sub\n        /* \"#utility.yul\":14899:14900   */\n      0x00\n        /* \"#utility.yul\":14888:14897   */\n      dup4\n        /* \"#utility.yul\":14884:14901   */\n      add\n        /* \"#utility.yul\":14877:14924   */\n      mstore\n        /* \"#utility.yul\":14941:15072   */\n      tag_322\n        /* \"#utility.yul\":15067:15071   */\n      dup2\n        /* \"#utility.yul\":14941:15072   */\n      tag_165\n      jump\t// in\n    tag_322:\n        /* \"#utility.yul\":14933:15072   */\n      swap1\n      pop\n        /* \"#utility.yul\":14660:15079   */\n      swap2\n      swap1\n      pop\n      jump\t// out\n        /* \"#utility.yul\":15085:15233   */\n    tag_166:\n        /* \"#utility.yul\":15187:15198   */\n      0x00\n        /* \"#utility.yul\":15224:15227   */\n      dup2\n        /* \"#utility.yul\":15209:15227   */\n      swap1\n      pop\n        /* \"#utility.yul\":15085:15233   */\n      swap3\n      swap2\n      pop\n      pop\n      jump\t// out\n        /* \"#utility.yul\":15239:15453   */\n    tag_167:\n        /* \"#utility.yul\":15379:15445   */\n      0x19457468657265756d205369676e6564204d6573736167653a0a333200000000\n        /* \"#utility.yul\":15375:15376   */\n      0x00\n        /* \"#utility.yul\":15367:15373   */\n      dup3\n        /* \"#utility.yul\":15363:15377   */\n      add\n        /* \"#utility.yul\":15356:15446   */\n      mstore\n        /* \"#utility.yul\":15239:15453   */\n      pop\n      jump\t// out\n        /* \"#utility.yul\":15459:15861   */\n    tag_168:\n        /* \"#utility.yul\":15619:15622   */\n      0x00\n        /* \"#utility.yul\":15640:15725   */\n      tag_326\n        /* \"#utility.yul\":15722:15724   */\n      0x1c\n        /* \"#utility.yul\":15717:15720   */\n      dup4\n        /* \"#utility.yul\":15640:15725   */\n      tag_166\n      jump\t// in\n    tag_326:\n        /* \"#utility.yul\":15633:15725   */\n      swap2\n      pop\n        /* \"#utility.yul\":15734:15827   */\n      tag_327\n        /* \"#utility.yul\":15823:15826   */\n      dup3\n        /* \"#utility.yul\":15734:15827   */\n      tag_167\n      jump\t// in\n    tag_327:\n        /* \"#utility.yul\":15852:15854   */\n      0x1c\n        /* \"#utility.yul\":15847:15850   */\n      dup3\n        /* \"#utility.yul\":15843:15855   */\n      add\n        /* \"#utility.yul\":15836:15855   */\n      swap1\n      pop\n        /* \"#utility.yul\":15459:15861   */\n      swap2\n      swap1\n      pop\n      jump\t// out\n        /* \"#utility.yul\":15867:15944   */\n    tag_169:\n        /* \"#utility.yul\":15904:15911   */\n      0x00\n        /* \"#utility.yul\":15933:15938   */\n      dup2\n        /* \"#utility.yul\":15922:15938   */\n      swap1\n      pop\n        /* \"#utility.yul\":15867:15944   */\n      swap2\n      swap1\n      pop\n      jump\t// out\n        /* \"#utility.yul\":15950:16029   */\n    tag_170:\n        /* \"#utility.yul\":15989:15996   */\n      0x00\n        /* \"#utility.yul\":16018:16023   */\n      dup2\n        /* \"#utility.yul\":16007:16023   */\n      swap1\n      pop\n        /* \"#utility.yul\":15950:16029   */\n      swap2\n      swap1\n      pop\n      jump\t// out\n        /* \"#utility.yul\":16035:16192   */\n    tag_171:\n        /* \"#utility.yul\":16140:16185   */\n      tag_331\n        /* \"#utility.yul\":16160:16184   */\n      tag_332\n        /* \"#utility.yul\":16178:16183   */\n      dup3\n        /* \"#utility.yul\":16160:16184   */\n      tag_169\n      jump\t// in\n    tag_332:\n        /* \"#utility.yul\":16140:16185   */\n      tag_170\n      jump\t// in\n    tag_331:\n        /* \"#utility.yul\":16135:16138   */\n      dup3\n        /* \"#utility.yul\":16128:16186   */\n      mstore\n        /* \"#utility.yul\":16035:16192   */\n      pop\n      pop\n      jump\t// out\n        /* \"#utility.yul\":16198:16720   */\n    tag_104:\n        /* \"#utility.yul\":16411:16414   */\n      0x00\n        /* \"#utility.yul\":16433:16581   */\n      tag_334\n        /* \"#utility.yul\":16577:16580   */\n      dup3\n        /* \"#utility.yul\":16433:16581   */\n      tag_168\n      jump\t// in\n    tag_334:\n        /* \"#utility.yul\":16426:16581   */\n      swap2\n      pop\n        /* \"#utility.yul\":16591:16666   */\n      tag_335\n        /* \"#utility.yul\":16662:16665   */\n      dup3\n        /* \"#utility.yul\":16653:16659   */\n      dup5\n        /* \"#utility.yul\":16591:16666   */\n      tag_171\n      jump\t// in\n    tag_335:\n        /* \"#utility.yul\":16691:16693   */\n      0x20\n        /* \"#utility.yul\":16686:16689   */\n      dup3\n        /* \"#utility.yul\":16682:16694   */\n      add\n        /* \"#utility.yul\":16675:16694   */\n      swap2\n      pop\n        /* \"#utility.yul\":16711:16714   */\n      dup2\n        /* \"#utility.yul\":16704:16714   */\n      swap1\n      pop\n        /* \"#utility.yul\":16198:16720   */\n      swap3\n      swap2\n      pop\n      pop\n      jump\t// out\n        /* \"#utility.yul\":16726:16844   */\n    tag_172:\n        /* \"#utility.yul\":16813:16837   */\n      tag_337\n        /* \"#utility.yul\":16831:16836   */\n      dup2\n        /* \"#utility.yul\":16813:16837   */\n      tag_169\n      jump\t// in\n    tag_337:\n        /* \"#utility.yul\":16808:16811   */\n      dup3\n        /* \"#utility.yul\":16801:16838   */\n      mstore\n        /* \"#utility.yul\":16726:16844   */\n      pop\n      pop\n      jump\t// out\n        /* \"#utility.yul\":16850:16936   */\n    tag_173:\n        /* \"#utility.yul\":16885:16892   */\n      0x00\n        /* \"#utility.yul\":16925:16929   */\n      0xff\n        /* \"#utility.yul\":16918:16923   */\n      dup3\n        /* \"#utility.yul\":16914:16930   */\n      and\n        /* \"#utility.yul\":16903:16930   */\n      swap1\n      pop\n        /* \"#utility.yul\":16850:16936   */\n      swap2\n      swap1\n      pop\n      jump\t// out\n        /* \"#utility.yul\":16942:17054   */\n    tag_174:\n        /* \"#utility.yul\":17025:17047   */\n      tag_340\n        /* \"#utility.yul\":17041:17046   */\n      dup2\n        /* \"#utility.yul\":17025:17047   */\n      tag_173\n      jump\t// in\n    tag_340:\n        /* \"#utility.yul\":17020:17023   */\n      dup3\n        /* \"#utility.yul\":17013:17048   */\n      mstore\n        /* \"#utility.yul\":16942:17054   */\n      pop\n      pop\n      jump\t// out\n        /* \"#utility.yul\":17060:17605   */\n    tag_109:\n        /* \"#utility.yul\":17233:17237   */\n      0x00\n        /* \"#utility.yul\":17271:17274   */\n      0x80\n        /* \"#utility.yul\":17260:17269   */\n      dup3\n        /* \"#utility.yul\":17256:17275   */\n      add\n        /* \"#utility.yul\":17248:17275   */\n      swap1\n      pop\n        /* \"#utility.yul\":17285:17356   */\n      tag_342\n        /* \"#utility.yul\":17353:17354   */\n      0x00\n        /* \"#utility.yul\":17342:17351   */\n      dup4\n        /* \"#utility.yul\":17338:17355   */\n      add\n        /* \"#utility.yul\":17329:17335   */\n      dup8\n        /* \"#utility.yul\":17285:17356   */\n      tag_172\n      jump\t// in\n    tag_342:\n        /* \"#utility.yul\":17366:17434   */\n      tag_343\n        /* \"#utility.yul\":17430:17432   */\n      0x20\n        /* \"#utility.yul\":17419:17428   */\n      dup4\n        /* \"#utility.yul\":17415:17433   */\n      add\n        /* \"#utility.yul\":17406:17412   */\n      dup7\n        /* \"#utility.yul\":17366:17434   */\n      tag_174\n      jump\t// in\n    tag_343:\n        /* \"#utility.yul\":17444:17516   */\n      tag_344\n        /* \"#utility.yul\":17512:17514   */\n      0x40\n        /* \"#utility.yul\":17501:17510   */\n      dup4\n        /* \"#utility.yul\":17497:17515   */\n      add\n        /* \"#utility.yul\":17488:17494   */\n      dup6\n        /* \"#utility.yul\":17444:17516   */\n      tag_172\n      jump\t// in\n    tag_344:\n        /* \"#utility.yul\":17526:17598   */\n      tag_345\n        /* \"#utility.yul\":17594:17596   */\n      0x60\n        /* \"#utility.yul\":17583:17592   */\n      dup4\n        /* \"#utility.yul\":17579:17597   */\n      add\n        /* \"#utility.yul\":17570:17576   */\n      dup5\n        /* \"#utility.yul\":17526:17598   */\n      tag_172\n      jump\t// in\n    tag_345:\n        /* \"#utility.yul\":17060:17605   */\n      swap6\n      swap5\n      pop\n      pop\n      pop\n      pop\n      pop\n      jump\t// out\n        /* \"#utility.yul\":17611:17793   */\n    tag_175:\n        /* \"#utility.yul\":17751:17785   */\n      0x4f776e61626c653a2063616c6c6572206973206e6f7420746865206f776e6572\n        /* \"#utility.yul\":17747:17748   */\n      0x00\n        /* \"#utility.yul\":17739:17745   */\n      dup3\n        /* \"#utility.yul\":17735:17749   */\n      add\n        /* \"#utility.yul\":17728:17786   */\n      mstore\n        /* \"#utility.yul\":17611:17793   */\n      pop\n      jump\t// out\n        /* \"#utility.yul\":17799:18165   */\n    tag_176:\n        /* \"#utility.yul\":17941:17944   */\n      0x00\n        /* \"#utility.yul\":17962:18029   */\n      tag_348\n        /* \"#utility.yul\":18026:18028   */\n      0x20\n        /* \"#utility.yul\":18021:18024   */\n      dup4\n        /* \"#utility.yul\":17962:18029   */\n      tag_146\n      jump\t// in\n    tag_348:\n        /* \"#utility.yul\":17955:18029   */\n      swap2\n      pop\n        /* \"#utility.yul\":18038:18131   */\n      tag_349\n        /* \"#utility.yul\":18127:18130   */\n      dup3\n        /* \"#utility.yul\":18038:18131   */\n      tag_175\n      jump\t// in\n    tag_349:\n        /* \"#utility.yul\":18156:18158   */\n      0x20\n        /* \"#utility.yul\":18151:18154   */\n      dup3\n        /* \"#utility.yul\":18147:18159   */\n      add\n        /* \"#utility.yul\":18140:18159   */\n      swap1\n      pop\n        /* \"#utility.yul\":17799:18165   */\n      swap2\n      swap1\n      pop\n      jump\t// out\n        /* \"#utility.yul\":18171:18590   */\n    tag_118:\n        /* \"#utility.yul\":18337:18341   */\n      0x00\n        /* \"#utility.yul\":18375:18377   */\n      0x20\n        /* \"#utility.yul\":18364:18373   */\n      dup3\n        /* \"#utility.yul\":18360:18378   */\n      add\n        /* \"#utility.yul\":18352:18378   */\n      swap1\n      pop\n        /* \"#utility.yul\":18424:18433   */\n      dup2\n        /* \"#utility.yul\":18418:18422   */\n      dup2\n        /* \"#utility.yul\":18414:18434   */\n      sub\n        /* \"#utility.yul\":18410:18411   */\n      0x00\n        /* \"#utility.yul\":18399:18408   */\n      dup4\n        /* \"#utility.yul\":18395:18412   */\n      add\n        /* \"#utility.yul\":18388:18435   */\n      mstore\n        /* \"#utility.yul\":18452:18583   */\n      tag_351\n        /* \"#utility.yul\":18578:18582   */\n      dup2\n        /* \"#utility.yul\":18452:18583   */\n      tag_176\n      jump\t// in\n    tag_351:\n        /* \"#utility.yul\":18444:18583   */\n      swap1\n      pop\n        /* \"#utility.yul\":18171:18590   */\n      swap2\n      swap1\n      pop\n      jump\t// out\n\n    auxdata: 0xa26469706673582212205abebf68b1ebdbde22620528324d32d6e0b8f421eca65176910e23e167531b7664736f6c634300081a0033\n}\n",
				"bytecode": {
					"linkReferences": {},
					"object": "608060405234801561001057600080fd5b5060405161167f38038061167f83398181016040528101906100329190610207565b8061004f6100446100d860201b60201c565b6100e060201b60201c565b33600160006101000a81548173ffffffffffffffffffffffffffffffffffffffff021916908373ffffffffffffffffffffffffffffffffffffffff16021790555080600260006101000a81548173ffffffffffffffffffffffffffffffffffffffff021916908373ffffffffffffffffffffffffffffffffffffffff1602179055505050610234565b600033905090565b60008060009054906101000a900473ffffffffffffffffffffffffffffffffffffffff169050816000806101000a81548173ffffffffffffffffffffffffffffffffffffffff021916908373ffffffffffffffffffffffffffffffffffffffff1602179055508173ffffffffffffffffffffffffffffffffffffffff168173ffffffffffffffffffffffffffffffffffffffff167f8be0079c531659141344cd1fd0a4f28419497f9722a3daafe3b4186f6b6457e060405160405180910390a35050565b600080fd5b600073ffffffffffffffffffffffffffffffffffffffff82169050919050565b60006101d4826101a9565b9050919050565b6101e4816101c9565b81146101ef57600080fd5b50565b600081519050610201816101db565b92915050565b60006020828403121561021d5761021c6101a4565b5b600061022b848285016101f2565b91505092915050565b61143c806102436000396000f3fe608060405234801561001057600080fd5b50600436106100935760003560e01c80638da5cb5b116100665780638da5cb5b1461010a578063affed0e014610128578063f2fde38b14610146578063f851a44014610162578063fc0c546a1461018057610093565b80635255570214610098578063715018a6146100b45780637cc70240146100be57806380a5a371146100ee575b600080fd5b6100b260048036038101906100ad9190610bce565b61019e565b005b6100bc6104b7565b005b6100d860048036038101906100d39190610c68565b6104cb565b6040516100e59190610cc3565b60405180910390f35b61010860048036038101906101039190610cde565b6104fa565b005b61011261079b565b60405161011f9190610d61565b60405180910390f35b6101306107c4565b60405161013d9190610d8b565b60405180910390f35b610160600480360381019061015b9190610da6565b6107ca565b005b61016a61084d565b6040516101779190610d61565b60405180910390f35b610188610873565b6040516101959190610e32565b60405180910390f35b600160009054906101000a900473ffffffffffffffffffffffffffffffffffffffff1673ffffffffffffffffffffffffffffffffffffffff163373ffffffffffffffffffffffffffffffffffffffff161461022e576040517f08c379a000000000000000000000000000000000000000000000000000000000815260040161022590610eaa565b60405180910390fd5b600061026787878760035460405160200161024c9493929190610f33565b60405160208183030381529060405280519060200120610899565b90508673ffffffffffffffffffffffffffffffffffffffff166102ce8285858080601f016020809104026020016040519081016040528093929190818152602001838380828437600081840152601f19601f820116905080830192505050505050506108c9565b73ffffffffffffffffffffffffffffffffffffffff1614610324576040517f08c379a000000000000000000000000000000000000000000000000000000000815260040161031b90610fcd565b60405180910390fd5b60001515600460003373ffffffffffffffffffffffffffffffffffffffff1673ffffffffffffffffffffffffffffffffffffffff168152602001908152602001600020600086815260200190815260200160002060009054906101000a900460ff161515146103c8576040517f08c379a00000000000000000000000000000000000000000000000000000000081526004016103bf90611039565b60405180910390fd5b600260009054906101000a900473ffffffffffffffffffffffffffffffffffffffff1673ffffffffffffffffffffffffffffffffffffffff166340c10f1987876040518363ffffffff1660e01b8152600401610425929190611059565b600060405180830381600087803b15801561043f57600080fd5b505af1158015610453573d6000803e3d6000fd5b505050506000600181111561046b5761046a611082565b5b7fe9e94abdddf8d25c5f8173dd798c92d0e9c6f756e2b05af036ab3d7b333f75c0338888428989896040516104a6979695949392919061110f565b60405180910390a250505050505050565b6104bf61093e565b6104c960006109bc565b565b60046020528160005260406000206020528060005260406000206000915091509054906101000a900460ff1681565b600160009054906101000a900473ffffffffffffffffffffffffffffffffffffffff1673ffffffffffffffffffffffffffffffffffffffff163373ffffffffffffffffffffffffffffffffffffffff161461058a576040517f08c379a000000000000000000000000000000000000000000000000000000000815260040161058190610eaa565b60405180910390fd5b60001515600460003373ffffffffffffffffffffffffffffffffffffffff1673ffffffffffffffffffffffffffffffffffffffff168152602001908152602001600020600085815260200190815260200160002060009054906101000a900460ff1615151461062e576040517f08c379a000000000000000000000000000000000000000000000000000000000815260040161062590611039565b60405180910390fd5b6001600460003373ffffffffffffffffffffffffffffffffffffffff1673ffffffffffffffffffffffffffffffffffffffff168152602001908152602001600020600085815260200190815260200160002060006101000a81548160ff021916908315150217905550600260009054906101000a900473ffffffffffffffffffffffffffffffffffffffff1673ffffffffffffffffffffffffffffffffffffffff16639dc29fac33866040518363ffffffff1660e01b81526004016106f4929190611059565b600060405180830381600087803b15801561070e57600080fd5b505af1158015610722573d6000803e3d6000fd5b5050505060018081111561073957610738611082565b5b7fe9e94abdddf8d25c5f8173dd798c92d0e9c6f756e2b05af036ab3d7b333f75c03360008742888888604051610775979695949392919061110f565b60405180910390a260036000815480929190610790906111a8565b919050555050505050565b60008060009054906101000a900473ffffffffffffffffffffffffffffffffffffffff16905090565b60035481565b6107d261093e565b600073ffffffffffffffffffffffffffffffffffffffff168173ffffffffffffffffffffffffffffffffffffffff1603610841576040517f08c379a000000000000000000000000000000000000000000000000000000000815260040161083890611262565b60405180910390fd5b61084a816109bc565b50565b600160009054906101000a900473ffffffffffffffffffffffffffffffffffffffff1681565b600260009054906101000a900473ffffffffffffffffffffffffffffffffffffffff1681565b6000816040516020016108ac9190611304565b604051602081830303815290604052805190602001209050919050565b6000806000806108d885610a80565b809350819450829550505050600186848484604051600081526020016040526040516109079493929190611355565b6020604051602081039080840390855afa158015610929573d6000803e3d6000fd5b50505060206040510351935050505092915050565b610946610ac3565b73ffffffffffffffffffffffffffffffffffffffff1661096461079b565b73ffffffffffffffffffffffffffffffffffffffff16146109ba576040517f08c379a00000000000000000000000000000000000000000000000000000000081526004016109b1906113e6565b60405180910390fd5b565b60008060009054906101000a900473ffffffffffffffffffffffffffffffffffffffff169050816000806101000a81548173ffffffffffffffffffffffffffffffffffffffff021916908373ffffffffffffffffffffffffffffffffffffffff1602179055508173ffffffffffffffffffffffffffffffffffffffff168173ffffffffffffffffffffffffffffffffffffffff167f8be0079c531659141344cd1fd0a4f28419497f9722a3daafe3b4186f6b6457e060405160405180910390a35050565b60008060006041845114610a9357600080fd5b60008060006020870151925060408701519150606087015160001a90508083839550955095505050509193909250565b600033905090565b600080fd5b600080fd5b600073ffffffffffffffffffffffffffffffffffffffff82169050919050565b6000610b0082610ad5565b9050919050565b610b1081610af5565b8114610b1b57600080fd5b50565b600081359050610b2d81610b07565b92915050565b6000819050919050565b610b4681610b33565b8114610b5157600080fd5b50565b600081359050610b6381610b3d565b92915050565b600080fd5b600080fd5b600080fd5b60008083601f840112610b8e57610b8d610b69565b5b8235905067ffffffffffffffff811115610bab57610baa610b6e565b5b602083019150836001820283011115610bc757610bc6610b73565b5b9250929050565b60008060008060008060a08789031215610beb57610bea610acb565b5b6000610bf989828a01610b1e565b9650506020610c0a89828a01610b1e565b9550506040610c1b89828a01610b54565b9450506060610c2c89828a01610b54565b935050608087013567ffffffffffffffff811115610c4d57610c4c610ad0565b5b610c5989828a01610b78565b92509250509295509295509295565b60008060408385031215610c7f57610c7e610acb565b5b6000610c8d85828601610b1e565b9250506020610c9e85828601610b54565b9150509250929050565b60008115159050919050565b610cbd81610ca8565b82525050565b6000602082019050610cd86000830184610cb4565b92915050565b60008060008060608587031215610cf857610cf7610acb565b5b6000610d0687828801610b54565b9450506020610d1787828801610b54565b935050604085013567ffffffffffffffff811115610d3857610d37610ad0565b5b610d4487828801610b78565b925092505092959194509250565b610d5b81610af5565b82525050565b6000602082019050610d766000830184610d52565b92915050565b610d8581610b33565b82525050565b6000602082019050610da06000830184610d7c565b92915050565b600060208284031215610dbc57610dbb610acb565b5b6000610dca84828501610b1e565b91505092915050565b6000819050919050565b6000610df8610df3610dee84610ad5565b610dd3565b610ad5565b9050919050565b6000610e0a82610ddd565b9050919050565b6000610e1c82610dff565b9050919050565b610e2c81610e11565b82525050565b6000602082019050610e476000830184610e23565b92915050565b600082825260208201905092915050565b7f4f6e6c792041646d696e21000000000000000000000000000000000000000000600082015250565b6000610e94600b83610e4d565b9150610e9f82610e5e565b602082019050919050565b60006020820190508181036000830152610ec381610e87565b9050919050565b60008160601b9050919050565b6000610ee282610eca565b9050919050565b6000610ef482610ed7565b9050919050565b610f0c610f0782610af5565b610ee9565b82525050565b6000819050919050565b610f2d610f2882610b33565b610f12565b82525050565b6000610f3f8287610efb565b601482019150610f4f8286610efb565b601482019150610f5f8285610f1c565b602082019150610f6f8284610f1c565b60208201915081905095945050505050565b7f57726f6e67205369676e61747572652100000000000000000000000000000000600082015250565b6000610fb7601083610e4d565b9150610fc282610f81565b602082019050919050565b60006020820190508181036000830152610fe681610faa565b9050919050565b7f416c7265616479205472616e7366657272656421000000000000000000000000600082015250565b6000611023601483610e4d565b915061102e82610fed565b602082019050919050565b6000602082019050818103600083015261105281611016565b9050919050565b600060408201905061106e6000830185610d52565b61107b6020830184610d7c565b9392505050565b7f4e487b7100000000000000000000000000000000000000000000000000000000600052602160045260246000fd5b600082825260208201905092915050565b82818337600083830152505050565b6000601f19601f8301169050919050565b60006110ee83856110b1565b93506110fb8385846110c2565b611104836110d1565b840190509392505050565b600060c082019050611124600083018a610d52565b6111316020830189610d52565b61113e6040830188610d7c565b61114b6060830187610d7c565b6111586080830186610d7c565b81810360a083015261116b8184866110e2565b905098975050505050505050565b7f4e487b7100000000000000000000000000000000000000000000000000000000600052601160045260246000fd5b60006111b382610b33565b91507fffffffffffffffffffffffffffffffffffffffffffffffffffffffffffffffff82036111e5576111e4611179565b5b600182019050919050565b7f4f776e61626c653a206e6577206f776e657220697320746865207a65726f206160008201527f6464726573730000000000000000000000000000000000000000000000000000602082015250565b600061124c602683610e4d565b9150611257826111f0565b604082019050919050565b6000602082019050818103600083015261127b8161123f565b9050919050565b600081905092915050565b7f19457468657265756d205369676e6564204d6573736167653a0a333200000000600082015250565b60006112c3601c83611282565b91506112ce8261128d565b601c82019050919050565b6000819050919050565b6000819050919050565b6112fe6112f9826112d9565b6112e3565b82525050565b600061130f826112b6565b915061131b82846112ed565b60208201915081905092915050565b611333816112d9565b82525050565b600060ff82169050919050565b61134f81611339565b82525050565b600060808201905061136a600083018761132a565b6113776020830186611346565b611384604083018561132a565b611391606083018461132a565b95945050505050565b7f4f776e61626c653a2063616c6c6572206973206e6f7420746865206f776e6572600082015250565b60006113d0602083610e4d565b91506113db8261139a565b602082019050919050565b600060208201905081810360008301526113ff816113c3565b905091905056fea26469706673582212205abebf68b1ebdbde22620528324d32d6e0b8f421eca65176910e23e167531b7664736f6c634300081a0033",
					"opcodes": "PUSH1 0x80 PUSH1 0x40 MSTORE CALLVALUE DUP1 ISZERO PUSH2 0x10 JUMPI PUSH1 0x0 DUP1 REVERT JUMPDEST POP PUSH1 0x40 MLOAD PUSH2 0x167F CODESIZE SUB DUP1 PUSH2 0x167F DUP4 CODECOPY DUP2 DUP2 ADD PUSH1 0x40 MSTORE DUP2 ADD SWAP1 PUSH2 0x32 SWAP2 SWAP1 PUSH2 0x207 JUMP JUMPDEST DUP1 PUSH2 0x4F PUSH2 0x44 PUSH2 0xD8 PUSH1 0x20 SHL PUSH1 0x20 SHR JUMP JUMPDEST PUSH2 0xE0 PUSH1 0x20 SHL PUSH1 0x20 SHR JUMP JUMPDEST CALLER PUSH1 0x1 PUSH1 0x0 PUSH2 0x100 EXP DUP2 SLOAD DUP2 PUSH20 0xFFFFFFFFFFFFFFFFFFFFFFFFFFFFFFFFFFFFFFFF MUL NOT AND SWAP1 DUP4 PUSH20 0xFFFFFFFFFFFFFFFFFFFFFFFFFFFFFFFFFFFFFFFF AND MUL OR SWAP1 SSTORE POP DUP1 PUSH1 0x2 PUSH1 0x0 PUSH2 0x100 EXP DUP2 SLOAD DUP2 PUSH20 0xFFFFFFFFFFFFFFFFFFFFFFFFFFFFFFFFFFFFFFFF MUL NOT AND SWAP1 DUP4 PUSH20 0xFFFFFFFFFFFFFFFFFFFFFFFFFFFFFFFFFFFFFFFF AND MUL OR SWAP1 SSTORE POP POP POP PUSH2 0x234 JUMP JUMPDEST PUSH1 0x0 CALLER SWAP1 POP SWAP1 JUMP JUMPDEST PUSH1 0x0 DUP1 PUSH1 0x0 SWAP1 SLOAD SWAP1 PUSH2 0x100 EXP SWAP1 DIV PUSH20 0xFFFFFFFFFFFFFFFFFFFFFFFFFFFFFFFFFFFFFFFF AND SWAP1 POP DUP2 PUSH1 0x0 DUP1 PUSH2 0x100 EXP DUP2 SLOAD DUP2 PUSH20 0xFFFFFFFFFFFFFFFFFFFFFFFFFFFFFFFFFFFFFFFF MUL NOT AND SWAP1 DUP4 PUSH20 0xFFFFFFFFFFFFFFFFFFFFFFFFFFFFFFFFFFFFFFFF AND MUL OR SWAP1 SSTORE POP DUP2 PUSH20 0xFFFFFFFFFFFFFFFFFFFFFFFFFFFFFFFFFFFFFFFF AND DUP2 PUSH20 0xFFFFFFFFFFFFFFFFFFFFFFFFFFFFFFFFFFFFFFFF AND PUSH32 0x8BE0079C531659141344CD1FD0A4F28419497F9722A3DAAFE3B4186F6B6457E0 PUSH1 0x40 MLOAD PUSH1 0x40 MLOAD DUP1 SWAP2 SUB SWAP1 LOG3 POP POP JUMP JUMPDEST PUSH1 0x0 DUP1 REVERT JUMPDEST PUSH1 0x0 PUSH20 0xFFFFFFFFFFFFFFFFFFFFFFFFFFFFFFFFFFFFFFFF DUP3 AND SWAP1 POP SWAP2 SWAP1 POP JUMP JUMPDEST PUSH1 0x0 PUSH2 0x1D4 DUP3 PUSH2 0x1A9 JUMP JUMPDEST SWAP1 POP SWAP2 SWAP1 POP JUMP JUMPDEST PUSH2 0x1E4 DUP2 PUSH2 0x1C9 JUMP JUMPDEST DUP2 EQ PUSH2 0x1EF JUMPI PUSH1 0x0 DUP1 REVERT JUMPDEST POP JUMP JUMPDEST PUSH1 0x0 DUP2 MLOAD SWAP1 POP PUSH2 0x201 DUP2 PUSH2 0x1DB JUMP JUMPDEST SWAP3 SWAP2 POP POP JUMP JUMPDEST PUSH1 0x0 PUSH1 0x20 DUP3 DUP5 SUB SLT ISZERO PUSH2 0x21D JUMPI PUSH2 0x21C PUSH2 0x1A4 JUMP JUMPDEST JUMPDEST PUSH1 0x0 PUSH2 0x22B DUP5 DUP3 DUP6 ADD PUSH2 0x1F2 JUMP JUMPDEST SWAP2 POP POP SWAP3 SWAP2 POP POP JUMP JUMPDEST PUSH2 0x143C DUP1 PUSH2 0x243 PUSH1 0x0 CODECOPY PUSH1 0x0 RETURN INVALID PUSH1 0x80 PUSH1 0x40 MSTORE CALLVALUE DUP1 ISZERO PUSH2 0x10 JUMPI PUSH1 0x0 DUP1 REVERT JUMPDEST POP PUSH1 0x4 CALLDATASIZE LT PUSH2 0x93 JUMPI PUSH1 0x0 CALLDATALOAD PUSH1 0xE0 SHR DUP1 PUSH4 0x8DA5CB5B GT PUSH2 0x66 JUMPI DUP1 PUSH4 0x8DA5CB5B EQ PUSH2 0x10A JUMPI DUP1 PUSH4 0xAFFED0E0 EQ PUSH2 0x128 JUMPI DUP1 PUSH4 0xF2FDE38B EQ PUSH2 0x146 JUMPI DUP1 PUSH4 0xF851A440 EQ PUSH2 0x162 JUMPI DUP1 PUSH4 0xFC0C546A EQ PUSH2 0x180 JUMPI PUSH2 0x93 JUMP JUMPDEST DUP1 PUSH4 0x52555702 EQ PUSH2 0x98 JUMPI DUP1 PUSH4 0x715018A6 EQ PUSH2 0xB4 JUMPI DUP1 PUSH4 0x7CC70240 EQ PUSH2 0xBE JUMPI DUP1 PUSH4 0x80A5A371 EQ PUSH2 0xEE JUMPI JUMPDEST PUSH1 0x0 DUP1 REVERT JUMPDEST PUSH2 0xB2 PUSH1 0x4 DUP1 CALLDATASIZE SUB DUP2 ADD SWAP1 PUSH2 0xAD SWAP2 SWAP1 PUSH2 0xBCE JUMP JUMPDEST PUSH2 0x19E JUMP JUMPDEST STOP JUMPDEST PUSH2 0xBC PUSH2 0x4B7 JUMP JUMPDEST STOP JUMPDEST PUSH2 0xD8 PUSH1 0x4 DUP1 CALLDATASIZE SUB DUP2 ADD SWAP1 PUSH2 0xD3 SWAP2 SWAP1 PUSH2 0xC68 JUMP JUMPDEST PUSH2 0x4CB JUMP JUMPDEST PUSH1 0x40 MLOAD PUSH2 0xE5 SWAP2 SWAP1 PUSH2 0xCC3 JUMP JUMPDEST PUSH1 0x40 MLOAD DUP1 SWAP2 SUB SWAP1 RETURN JUMPDEST PUSH2 0x108 PUSH1 0x4 DUP1 CALLDATASIZE SUB DUP2 ADD SWAP1 PUSH2 0x103 SWAP2 SWAP1 PUSH2 0xCDE JUMP JUMPDEST PUSH2 0x4FA JUMP JUMPDEST STOP JUMPDEST PUSH2 0x112 PUSH2 0x79B JUMP JUMPDEST PUSH1 0x40 MLOAD PUSH2 0x11F SWAP2 SWAP1 PUSH2 0xD61 JUMP JUMPDEST PUSH1 0x40 MLOAD DUP1 SWAP2 SUB SWAP1 RETURN JUMPDEST PUSH2 0x130 PUSH2 0x7C4 JUMP JUMPDEST PUSH1 0x40 MLOAD PUSH2 0x13D SWAP2 SWAP1 PUSH2 0xD8B JUMP JUMPDEST PUSH1 0x40 MLOAD DUP1 SWAP2 SUB SWAP1 RETURN JUMPDEST PUSH2 0x160 PUSH1 0x4 DUP1 CALLDATASIZE SUB DUP2 ADD SWAP1 PUSH2 0x15B SWAP2 SWAP1 PUSH2 0xDA6 JUMP JUMPDEST PUSH2 0x7CA JUMP JUMPDEST STOP JUMPDEST PUSH2 0x16A PUSH2 0x84D JUMP JUMPDEST PUSH1 0x40 MLOAD PUSH2 0x177 SWAP2 SWAP1 PUSH2 0xD61 JUMP JUMPDEST PUSH1 0x40 MLOAD DUP1 SWAP2 SUB SWAP1 RETURN JUMPDEST PUSH2 0x188 PUSH2 0x873 JUMP JUMPDEST PUSH1 0x40 MLOAD PUSH2 0x195 SWAP2 SWAP1 PUSH2 0xE32 JUMP JUMPDEST PUSH1 0x40 MLOAD DUP1 SWAP2 SUB SWAP1 RETURN JUMPDEST PUSH1 0x1 PUSH1 0x0 SWAP1 SLOAD SWAP1 PUSH2 0x100 EXP SWAP1 DIV PUSH20 0xFFFFFFFFFFFFFFFFFFFFFFFFFFFFFFFFFFFFFFFF AND PUSH20 0xFFFFFFFFFFFFFFFFFFFFFFFFFFFFFFFFFFFFFFFF AND CALLER PUSH20 0xFFFFFFFFFFFFFFFFFFFFFFFFFFFFFFFFFFFFFFFF AND EQ PUSH2 0x22E JUMPI PUSH1 0x40 MLOAD PUSH32 0x8C379A000000000000000000000000000000000000000000000000000000000 DUP2 MSTORE PUSH1 0x4 ADD PUSH2 0x225 SWAP1 PUSH2 0xEAA JUMP JUMPDEST PUSH1 0x40 MLOAD DUP1 SWAP2 SUB SWAP1 REVERT JUMPDEST PUSH1 0x0 PUSH2 0x267 DUP8 DUP8 DUP8 PUSH1 0x3 SLOAD PUSH1 0x40 MLOAD PUSH1 0x20 ADD PUSH2 0x24C SWAP5 SWAP4 SWAP3 SWAP2 SWAP1 PUSH2 0xF33 JUMP JUMPDEST PUSH1 0x40 MLOAD PUSH1 0x20 DUP2 DUP4 SUB SUB DUP2 MSTORE SWAP1 PUSH1 0x40 MSTORE DUP1 MLOAD SWAP1 PUSH1 0x20 ADD KECCAK256 PUSH2 0x899 JUMP JUMPDEST SWAP1 POP DUP7 PUSH20 0xFFFFFFFFFFFFFFFFFFFFFFFFFFFFFFFFFFFFFFFF AND PUSH2 0x2CE DUP3 DUP6 DUP6 DUP1 DUP1 PUSH1 0x1F ADD PUSH1 0x20 DUP1 SWAP2 DIV MUL PUSH1 0x20 ADD PUSH1 0x40 MLOAD SWAP1 DUP2 ADD PUSH1 0x40 MSTORE DUP1 SWAP4 SWAP3 SWAP2 SWAP1 DUP2 DUP2 MSTORE PUSH1 0x20 ADD DUP4 DUP4 DUP1 DUP3 DUP5 CALLDATACOPY PUSH1 0x0 DUP2 DUP5 ADD MSTORE PUSH1 0x1F NOT PUSH1 0x1F DUP3 ADD AND SWAP1 POP DUP1 DUP4 ADD SWAP3 POP POP POP POP POP POP POP PUSH2 0x8C9 JUMP JUMPDEST PUSH20 0xFFFFFFFFFFFFFFFFFFFFFFFFFFFFFFFFFFFFFFFF AND EQ PUSH2 0x324 JUMPI PUSH1 0x40 MLOAD PUSH32 0x8C379A000000000000000000000000000000000000000000000000000000000 DUP2 MSTORE PUSH1 0x4 ADD PUSH2 0x31B SWAP1 PUSH2 0xFCD JUMP JUMPDEST PUSH1 0x40 MLOAD DUP1 SWAP2 SUB SWAP1 REVERT JUMPDEST PUSH1 0x0 ISZERO ISZERO PUSH1 0x4 PUSH1 0x0 CALLER PUSH20 0xFFFFFFFFFFFFFFFFFFFFFFFFFFFFFFFFFFFFFFFF AND PUSH20 0xFFFFFFFFFFFFFFFFFFFFFFFFFFFFFFFFFFFFFFFF AND DUP2 MSTORE PUSH1 0x20 ADD SWAP1 DUP2 MSTORE PUSH1 0x20 ADD PUSH1 0x0 KECCAK256 PUSH1 0x0 DUP7 DUP2 MSTORE PUSH1 0x20 ADD SWAP1 DUP2 MSTORE PUSH1 0x20 ADD PUSH1 0x0 KECCAK256 PUSH1 0x0 SWAP1 SLOAD SWAP1 PUSH2 0x100 EXP SWAP1 DIV PUSH1 0xFF AND ISZERO ISZERO EQ PUSH2 0x3C8 JUMPI PUSH1 0x40 MLOAD PUSH32 0x8C379A000000000000000000000000000000000000000000000000000000000 DUP2 MSTORE PUSH1 0x4 ADD PUSH2 0x3BF SWAP1 PUSH2 0x1039 JUMP JUMPDEST PUSH1 0x40 MLOAD DUP1 SWAP2 SUB SWAP1 REVERT JUMPDEST PUSH1 0x2 PUSH1 0x0 SWAP1 SLOAD SWAP1 PUSH2 0x100 EXP SWAP1 DIV PUSH20 0xFFFFFFFFFFFFFFFFFFFFFFFFFFFFFFFFFFFFFFFF AND PUSH20 0xFFFFFFFFFFFFFFFFFFFFFFFFFFFFFFFFFFFFFFFF AND PUSH4 0x40C10F19 DUP8 DUP8 PUSH1 0x40 MLOAD DUP4 PUSH4 0xFFFFFFFF AND PUSH1 0xE0 SHL DUP2 MSTORE PUSH1 0x4 ADD PUSH2 0x425 SWAP3 SWAP2 SWAP1 PUSH2 0x1059 JUMP JUMPDEST PUSH1 0x0 PUSH1 0x40 MLOAD DUP1 DUP4 SUB DUP2 PUSH1 0x0 DUP8 DUP1 EXTCODESIZE ISZERO DUP1 ISZERO PUSH2 0x43F JUMPI PUSH1 0x0 DUP1 REVERT JUMPDEST POP GAS CALL ISZERO DUP1 ISZERO PUSH2 0x453 JUMPI RETURNDATASIZE PUSH1 0x0 DUP1 RETURNDATACOPY RETURNDATASIZE PUSH1 0x0 REVERT JUMPDEST POP POP POP POP PUSH1 0x0 PUSH1 0x1 DUP2 GT ISZERO PUSH2 0x46B JUMPI PUSH2 0x46A PUSH2 0x1082 JUMP JUMPDEST JUMPDEST PUSH32 0xE9E94ABDDDF8D25C5F8173DD798C92D0E9C6F756E2B05AF036AB3D7B333F75C0 CALLER DUP9 DUP9 TIMESTAMP DUP10 DUP10 DUP10 PUSH1 0x40 MLOAD PUSH2 0x4A6 SWAP8 SWAP7 SWAP6 SWAP5 SWAP4 SWAP3 SWAP2 SWAP1 PUSH2 0x110F JUMP JUMPDEST PUSH1 0x40 MLOAD DUP1 SWAP2 SUB SWAP1 LOG2 POP POP POP POP POP POP POP JUMP JUMPDEST PUSH2 0x4BF PUSH2 0x93E JUMP JUMPDEST PUSH2 0x4C9 PUSH1 0x0 PUSH2 0x9BC JUMP JUMPDEST JUMP JUMPDEST PUSH1 0x4 PUSH1 0x20 MSTORE DUP2 PUSH1 0x0 MSTORE PUSH1 0x40 PUSH1 0x0 KECCAK256 PUSH1 0x20 MSTORE DUP1 PUSH1 0x0 MSTORE PUSH1 0x40 PUSH1 0x0 KECCAK256 PUSH1 0x0 SWAP2 POP SWAP2 POP SWAP1 SLOAD SWAP1 PUSH2 0x100 EXP SWAP1 DIV PUSH1 0xFF AND DUP2 JUMP JUMPDEST PUSH1 0x1 PUSH1 0x0 SWAP1 SLOAD SWAP1 PUSH2 0x100 EXP SWAP1 DIV PUSH20 0xFFFFFFFFFFFFFFFFFFFFFFFFFFFFFFFFFFFFFFFF AND PUSH20 0xFFFFFFFFFFFFFFFFFFFFFFFFFFFFFFFFFFFFFFFF AND CALLER PUSH20 0xFFFFFFFFFFFFFFFFFFFFFFFFFFFFFFFFFFFFFFFF AND EQ PUSH2 0x58A JUMPI PUSH1 0x40 MLOAD PUSH32 0x8C379A000000000000000000000000000000000000000000000000000000000 DUP2 MSTORE PUSH1 0x4 ADD PUSH2 0x581 SWAP1 PUSH2 0xEAA JUMP JUMPDEST PUSH1 0x40 MLOAD DUP1 SWAP2 SUB SWAP1 REVERT JUMPDEST PUSH1 0x0 ISZERO ISZERO PUSH1 0x4 PUSH1 0x0 CALLER PUSH20 0xFFFFFFFFFFFFFFFFFFFFFFFFFFFFFFFFFFFFFFFF AND PUSH20 0xFFFFFFFFFFFFFFFFFFFFFFFFFFFFFFFFFFFFFFFF AND DUP2 MSTORE PUSH1 0x20 ADD SWAP1 DUP2 MSTORE PUSH1 0x20 ADD PUSH1 0x0 KECCAK256 PUSH1 0x0 DUP6 DUP2 MSTORE PUSH1 0x20 ADD SWAP1 DUP2 MSTORE PUSH1 0x20 ADD PUSH1 0x0 KECCAK256 PUSH1 0x0 SWAP1 SLOAD SWAP1 PUSH2 0x100 EXP SWAP1 DIV PUSH1 0xFF AND ISZERO ISZERO EQ PUSH2 0x62E JUMPI PUSH1 0x40 MLOAD PUSH32 0x8C379A000000000000000000000000000000000000000000000000000000000 DUP2 MSTORE PUSH1 0x4 ADD PUSH2 0x625 SWAP1 PUSH2 0x1039 JUMP JUMPDEST PUSH1 0x40 MLOAD DUP1 SWAP2 SUB SWAP1 REVERT JUMPDEST PUSH1 0x1 PUSH1 0x4 PUSH1 0x0 CALLER PUSH20 0xFFFFFFFFFFFFFFFFFFFFFFFFFFFFFFFFFFFFFFFF AND PUSH20 0xFFFFFFFFFFFFFFFFFFFFFFFFFFFFFFFFFFFFFFFF AND DUP2 MSTORE PUSH1 0x20 ADD SWAP1 DUP2 MSTORE PUSH1 0x20 ADD PUSH1 0x0 KECCAK256 PUSH1 0x0 DUP6 DUP2 MSTORE PUSH1 0x20 ADD SWAP1 DUP2 MSTORE PUSH1 0x20 ADD PUSH1 0x0 KECCAK256 PUSH1 0x0 PUSH2 0x100 EXP DUP2 SLOAD DUP2 PUSH1 0xFF MUL NOT AND SWAP1 DUP4 ISZERO ISZERO MUL OR SWAP1 SSTORE POP PUSH1 0x2 PUSH1 0x0 SWAP1 SLOAD SWAP1 PUSH2 0x100 EXP SWAP1 DIV PUSH20 0xFFFFFFFFFFFFFFFFFFFFFFFFFFFFFFFFFFFFFFFF AND PUSH20 0xFFFFFFFFFFFFFFFFFFFFFFFFFFFFFFFFFFFFFFFF AND PUSH4 0x9DC29FAC CALLER DUP7 PUSH1 0x40 MLOAD DUP4 PUSH4 0xFFFFFFFF AND PUSH1 0xE0 SHL DUP2 MSTORE PUSH1 0x4 ADD PUSH2 0x6F4 SWAP3 SWAP2 SWAP1 PUSH2 0x1059 JUMP JUMPDEST PUSH1 0x0 PUSH1 0x40 MLOAD DUP1 DUP4 SUB DUP2 PUSH1 0x0 DUP8 DUP1 EXTCODESIZE ISZERO DUP1 ISZERO PUSH2 0x70E JUMPI PUSH1 0x0 DUP1 REVERT JUMPDEST POP GAS CALL ISZERO DUP1 ISZERO PUSH2 0x722 JUMPI RETURNDATASIZE PUSH1 0x0 DUP1 RETURNDATACOPY RETURNDATASIZE PUSH1 0x0 REVERT JUMPDEST POP POP POP POP PUSH1 0x1 DUP1 DUP2 GT ISZERO PUSH2 0x739 JUMPI PUSH2 0x738 PUSH2 0x1082 JUMP JUMPDEST JUMPDEST PUSH32 0xE9E94ABDDDF8D25C5F8173DD798C92D0E9C6F756E2B05AF036AB3D7B333F75C0 CALLER PUSH1 0x0 DUP8 TIMESTAMP DUP9 DUP9 DUP9 PUSH1 0x40 MLOAD PUSH2 0x775 SWAP8 SWAP7 SWAP6 SWAP5 SWAP4 SWAP3 SWAP2 SWAP1 PUSH2 0x110F JUMP JUMPDEST PUSH1 0x40 MLOAD DUP1 SWAP2 SUB SWAP1 LOG2 PUSH1 0x3 PUSH1 0x0 DUP2 SLOAD DUP1 SWAP3 SWAP2 SWAP1 PUSH2 0x790 SWAP1 PUSH2 0x11A8 JUMP JUMPDEST SWAP2 SWAP1 POP SSTORE POP POP POP POP POP JUMP JUMPDEST PUSH1 0x0 DUP1 PUSH1 0x0 SWAP1 SLOAD SWAP1 PUSH2 0x100 EXP SWAP1 DIV PUSH20 0xFFFFFFFFFFFFFFFFFFFFFFFFFFFFFFFFFFFFFFFF AND SWAP1 POP SWAP1 JUMP JUMPDEST PUSH1 0x3 SLOAD DUP2 JUMP JUMPDEST PUSH2 0x7D2 PUSH2 0x93E JUMP JUMPDEST PUSH1 0x0 PUSH20 0xFFFFFFFFFFFFFFFFFFFFFFFFFFFFFFFFFFFFFFFF AND DUP2 PUSH20 0xFFFFFFFFFFFFFFFFFFFFFFFFFFFFFFFFFFFFFFFF AND SUB PUSH2 0x841 JUMPI PUSH1 0x40 MLOAD PUSH32 0x8C379A000000000000000000000000000000000000000000000000000000000 DUP2 MSTORE PUSH1 0x4 ADD PUSH2 0x838 SWAP1 PUSH2 0x1262 JUMP JUMPDEST PUSH1 0x40 MLOAD DUP1 SWAP2 SUB SWAP1 REVERT JUMPDEST PUSH2 0x84A DUP2 PUSH2 0x9BC JUMP JUMPDEST POP JUMP JUMPDEST PUSH1 0x1 PUSH1 0x0 SWAP1 SLOAD SWAP1 PUSH2 0x100 EXP SWAP1 DIV PUSH20 0xFFFFFFFFFFFFFFFFFFFFFFFFFFFFFFFFFFFFFFFF AND DUP2 JUMP JUMPDEST PUSH1 0x2 PUSH1 0x0 SWAP1 SLOAD SWAP1 PUSH2 0x100 EXP SWAP1 DIV PUSH20 0xFFFFFFFFFFFFFFFFFFFFFFFFFFFFFFFFFFFFFFFF AND DUP2 JUMP JUMPDEST PUSH1 0x0 DUP2 PUSH1 0x40 MLOAD PUSH1 0x20 ADD PUSH2 0x8AC SWAP2 SWAP1 PUSH2 0x1304 JUMP JUMPDEST PUSH1 0x40 MLOAD PUSH1 0x20 DUP2 DUP4 SUB SUB DUP2 MSTORE SWAP1 PUSH1 0x40 MSTORE DUP1 MLOAD SWAP1 PUSH1 0x20 ADD KECCAK256 SWAP1 POP SWAP2 SWAP1 POP JUMP JUMPDEST PUSH1 0x0 DUP1 PUSH1 0x0 DUP1 PUSH2 0x8D8 DUP6 PUSH2 0xA80 JUMP JUMPDEST DUP1 SWAP4 POP DUP2 SWAP5 POP DUP3 SWAP6 POP POP POP POP PUSH1 0x1 DUP7 DUP5 DUP5 DUP5 PUSH1 0x40 MLOAD PUSH1 0x0 DUP2 MSTORE PUSH1 0x20 ADD PUSH1 0x40 MSTORE PUSH1 0x40 MLOAD PUSH2 0x907 SWAP5 SWAP4 SWAP3 SWAP2 SWAP1 PUSH2 0x1355 JUMP JUMPDEST PUSH1 0x20 PUSH1 0x40 MLOAD PUSH1 0x20 DUP2 SUB SWAP1 DUP1 DUP5 SUB SWAP1 DUP6 GAS STATICCALL ISZERO DUP1 ISZERO PUSH2 0x929 JUMPI RETURNDATASIZE PUSH1 0x0 DUP1 RETURNDATACOPY RETURNDATASIZE PUSH1 0x0 REVERT JUMPDEST POP POP POP PUSH1 0x20 PUSH1 0x40 MLOAD SUB MLOAD SWAP4 POP POP POP POP SWAP3 SWAP2 POP POP JUMP JUMPDEST PUSH2 0x946 PUSH2 0xAC3 JUMP JUMPDEST PUSH20 0xFFFFFFFFFFFFFFFFFFFFFFFFFFFFFFFFFFFFFFFF AND PUSH2 0x964 PUSH2 0x79B JUMP JUMPDEST PUSH20 0xFFFFFFFFFFFFFFFFFFFFFFFFFFFFFFFFFFFFFFFF AND EQ PUSH2 0x9BA JUMPI PUSH1 0x40 MLOAD PUSH32 0x8C379A000000000000000000000000000000000000000000000000000000000 DUP2 MSTORE PUSH1 0x4 ADD PUSH2 0x9B1 SWAP1 PUSH2 0x13E6 JUMP JUMPDEST PUSH1 0x40 MLOAD DUP1 SWAP2 SUB SWAP1 REVERT JUMPDEST JUMP JUMPDEST PUSH1 0x0 DUP1 PUSH1 0x0 SWAP1 SLOAD SWAP1 PUSH2 0x100 EXP SWAP1 DIV PUSH20 0xFFFFFFFFFFFFFFFFFFFFFFFFFFFFFFFFFFFFFFFF AND SWAP1 POP DUP2 PUSH1 0x0 DUP1 PUSH2 0x100 EXP DUP2 SLOAD DUP2 PUSH20 0xFFFFFFFFFFFFFFFFFFFFFFFFFFFFFFFFFFFFFFFF MUL NOT AND SWAP1 DUP4 PUSH20 0xFFFFFFFFFFFFFFFFFFFFFFFFFFFFFFFFFFFFFFFF AND MUL OR SWAP1 SSTORE POP DUP2 PUSH20 0xFFFFFFFFFFFFFFFFFFFFFFFFFFFFFFFFFFFFFFFF AND DUP2 PUSH20 0xFFFFFFFFFFFFFFFFFFFFFFFFFFFFFFFFFFFFFFFF AND PUSH32 0x8BE0079C531659141344CD1FD0A4F28419497F9722A3DAAFE3B4186F6B6457E0 PUSH1 0x40 MLOAD PUSH1 0x40 MLOAD DUP1 SWAP2 SUB SWAP1 LOG3 POP POP JUMP JUMPDEST PUSH1 0x0 DUP1 PUSH1 0x0 PUSH1 0x41 DUP5 MLOAD EQ PUSH2 0xA93 JUMPI PUSH1 0x0 DUP1 REVERT JUMPDEST PUSH1 0x0 DUP1 PUSH1 0x0 PUSH1 0x20 DUP8 ADD MLOAD SWAP3 POP PUSH1 0x40 DUP8 ADD MLOAD SWAP2 POP PUSH1 0x60 DUP8 ADD MLOAD PUSH1 0x0 BYTE SWAP1 POP DUP1 DUP4 DUP4 SWAP6 POP SWAP6 POP SWAP6 POP POP POP POP SWAP2 SWAP4 SWAP1 SWAP3 POP JUMP JUMPDEST PUSH1 0x0 CALLER SWAP1 POP SWAP1 JUMP JUMPDEST PUSH1 0x0 DUP1 REVERT JUMPDEST PUSH1 0x0 DUP1 REVERT JUMPDEST PUSH1 0x0 PUSH20 0xFFFFFFFFFFFFFFFFFFFFFFFFFFFFFFFFFFFFFFFF DUP3 AND SWAP1 POP SWAP2 SWAP1 POP JUMP JUMPDEST PUSH1 0x0 PUSH2 0xB00 DUP3 PUSH2 0xAD5 JUMP JUMPDEST SWAP1 POP SWAP2 SWAP1 POP JUMP JUMPDEST PUSH2 0xB10 DUP2 PUSH2 0xAF5 JUMP JUMPDEST DUP2 EQ PUSH2 0xB1B JUMPI PUSH1 0x0 DUP1 REVERT JUMPDEST POP JUMP JUMPDEST PUSH1 0x0 DUP2 CALLDATALOAD SWAP1 POP PUSH2 0xB2D DUP2 PUSH2 0xB07 JUMP JUMPDEST SWAP3 SWAP2 POP POP JUMP JUMPDEST PUSH1 0x0 DUP2 SWAP1 POP SWAP2 SWAP1 POP JUMP JUMPDEST PUSH2 0xB46 DUP2 PUSH2 0xB33 JUMP JUMPDEST DUP2 EQ PUSH2 0xB51 JUMPI PUSH1 0x0 DUP1 REVERT JUMPDEST POP JUMP JUMPDEST PUSH1 0x0 DUP2 CALLDATALOAD SWAP1 POP PUSH2 0xB63 DUP2 PUSH2 0xB3D JUMP JUMPDEST SWAP3 SWAP2 POP POP JUMP JUMPDEST PUSH1 0x0 DUP1 REVERT JUMPDEST PUSH1 0x0 DUP1 REVERT JUMPDEST PUSH1 0x0 DUP1 REVERT JUMPDEST PUSH1 0x0 DUP1 DUP4 PUSH1 0x1F DUP5 ADD SLT PUSH2 0xB8E JUMPI PUSH2 0xB8D PUSH2 0xB69 JUMP JUMPDEST JUMPDEST DUP3 CALLDATALOAD SWAP1 POP PUSH8 0xFFFFFFFFFFFFFFFF DUP2 GT ISZERO PUSH2 0xBAB JUMPI PUSH2 0xBAA PUSH2 0xB6E JUMP JUMPDEST JUMPDEST PUSH1 0x20 DUP4 ADD SWAP2 POP DUP4 PUSH1 0x1 DUP3 MUL DUP4 ADD GT ISZERO PUSH2 0xBC7 JUMPI PUSH2 0xBC6 PUSH2 0xB73 JUMP JUMPDEST JUMPDEST SWAP3 POP SWAP3 SWAP1 POP JUMP JUMPDEST PUSH1 0x0 DUP1 PUSH1 0x0 DUP1 PUSH1 0x0 DUP1 PUSH1 0xA0 DUP8 DUP10 SUB SLT ISZERO PUSH2 0xBEB JUMPI PUSH2 0xBEA PUSH2 0xACB JUMP JUMPDEST JUMPDEST PUSH1 0x0 PUSH2 0xBF9 DUP10 DUP3 DUP11 ADD PUSH2 0xB1E JUMP JUMPDEST SWAP7 POP POP PUSH1 0x20 PUSH2 0xC0A DUP10 DUP3 DUP11 ADD PUSH2 0xB1E JUMP JUMPDEST SWAP6 POP POP PUSH1 0x40 PUSH2 0xC1B DUP10 DUP3 DUP11 ADD PUSH2 0xB54 JUMP JUMPDEST SWAP5 POP POP PUSH1 0x60 PUSH2 0xC2C DUP10 DUP3 DUP11 ADD PUSH2 0xB54 JUMP JUMPDEST SWAP4 POP POP PUSH1 0x80 DUP8 ADD CALLDATALOAD PUSH8 0xFFFFFFFFFFFFFFFF DUP2 GT ISZERO PUSH2 0xC4D JUMPI PUSH2 0xC4C PUSH2 0xAD0 JUMP JUMPDEST JUMPDEST PUSH2 0xC59 DUP10 DUP3 DUP11 ADD PUSH2 0xB78 JUMP JUMPDEST SWAP3 POP SWAP3 POP POP SWAP3 SWAP6 POP SWAP3 SWAP6 POP SWAP3 SWAP6 JUMP JUMPDEST PUSH1 0x0 DUP1 PUSH1 0x40 DUP4 DUP6 SUB SLT ISZERO PUSH2 0xC7F JUMPI PUSH2 0xC7E PUSH2 0xACB JUMP JUMPDEST JUMPDEST PUSH1 0x0 PUSH2 0xC8D DUP6 DUP3 DUP7 ADD PUSH2 0xB1E JUMP JUMPDEST SWAP3 POP POP PUSH1 0x20 PUSH2 0xC9E DUP6 DUP3 DUP7 ADD PUSH2 0xB54 JUMP JUMPDEST SWAP2 POP POP SWAP3 POP SWAP3 SWAP1 POP JUMP JUMPDEST PUSH1 0x0 DUP2 ISZERO ISZERO SWAP1 POP SWAP2 SWAP1 POP JUMP JUMPDEST PUSH2 0xCBD DUP2 PUSH2 0xCA8 JUMP JUMPDEST DUP3 MSTORE POP POP JUMP JUMPDEST PUSH1 0x0 PUSH1 0x20 DUP3 ADD SWAP1 POP PUSH2 0xCD8 PUSH1 0x0 DUP4 ADD DUP5 PUSH2 0xCB4 JUMP JUMPDEST SWAP3 SWAP2 POP POP JUMP JUMPDEST PUSH1 0x0 DUP1 PUSH1 0x0 DUP1 PUSH1 0x60 DUP6 DUP8 SUB SLT ISZERO PUSH2 0xCF8 JUMPI PUSH2 0xCF7 PUSH2 0xACB JUMP JUMPDEST JUMPDEST PUSH1 0x0 PUSH2 0xD06 DUP8 DUP3 DUP9 ADD PUSH2 0xB54 JUMP JUMPDEST SWAP5 POP POP PUSH1 0x20 PUSH2 0xD17 DUP8 DUP3 DUP9 ADD PUSH2 0xB54 JUMP JUMPDEST SWAP4 POP POP PUSH1 0x40 DUP6 ADD CALLDATALOAD PUSH8 0xFFFFFFFFFFFFFFFF DUP2 GT ISZERO PUSH2 0xD38 JUMPI PUSH2 0xD37 PUSH2 0xAD0 JUMP JUMPDEST JUMPDEST PUSH2 0xD44 DUP8 DUP3 DUP9 ADD PUSH2 0xB78 JUMP JUMPDEST SWAP3 POP SWAP3 POP POP SWAP3 SWAP6 SWAP2 SWAP5 POP SWAP3 POP JUMP JUMPDEST PUSH2 0xD5B DUP2 PUSH2 0xAF5 JUMP JUMPDEST DUP3 MSTORE POP POP JUMP JUMPDEST PUSH1 0x0 PUSH1 0x20 DUP3 ADD SWAP1 POP PUSH2 0xD76 PUSH1 0x0 DUP4 ADD DUP5 PUSH2 0xD52 JUMP JUMPDEST SWAP3 SWAP2 POP POP JUMP JUMPDEST PUSH2 0xD85 DUP2 PUSH2 0xB33 JUMP JUMPDEST DUP3 MSTORE POP POP JUMP JUMPDEST PUSH1 0x0 PUSH1 0x20 DUP3 ADD SWAP1 POP PUSH2 0xDA0 PUSH1 0x0 DUP4 ADD DUP5 PUSH2 0xD7C JUMP JUMPDEST SWAP3 SWAP2 POP POP JUMP JUMPDEST PUSH1 0x0 PUSH1 0x20 DUP3 DUP5 SUB SLT ISZERO PUSH2 0xDBC JUMPI PUSH2 0xDBB PUSH2 0xACB JUMP JUMPDEST JUMPDEST PUSH1 0x0 PUSH2 0xDCA DUP5 DUP3 DUP6 ADD PUSH2 0xB1E JUMP JUMPDEST SWAP2 POP POP SWAP3 SWAP2 POP POP JUMP JUMPDEST PUSH1 0x0 DUP2 SWAP1 POP SWAP2 SWAP1 POP JUMP JUMPDEST PUSH1 0x0 PUSH2 0xDF8 PUSH2 0xDF3 PUSH2 0xDEE DUP5 PUSH2 0xAD5 JUMP JUMPDEST PUSH2 0xDD3 JUMP JUMPDEST PUSH2 0xAD5 JUMP JUMPDEST SWAP1 POP SWAP2 SWAP1 POP JUMP JUMPDEST PUSH1 0x0 PUSH2 0xE0A DUP3 PUSH2 0xDDD JUMP JUMPDEST SWAP1 POP SWAP2 SWAP1 POP JUMP JUMPDEST PUSH1 0x0 PUSH2 0xE1C DUP3 PUSH2 0xDFF JUMP JUMPDEST SWAP1 POP SWAP2 SWAP1 POP JUMP JUMPDEST PUSH2 0xE2C DUP2 PUSH2 0xE11 JUMP JUMPDEST DUP3 MSTORE POP POP JUMP JUMPDEST PUSH1 0x0 PUSH1 0x20 DUP3 ADD SWAP1 POP PUSH2 0xE47 PUSH1 0x0 DUP4 ADD DUP5 PUSH2 0xE23 JUMP JUMPDEST SWAP3 SWAP2 POP POP JUMP JUMPDEST PUSH1 0x0 DUP3 DUP3 MSTORE PUSH1 0x20 DUP3 ADD SWAP1 POP SWAP3 SWAP2 POP POP JUMP JUMPDEST PUSH32 0x4F6E6C792041646D696E21000000000000000000000000000000000000000000 PUSH1 0x0 DUP3 ADD MSTORE POP JUMP JUMPDEST PUSH1 0x0 PUSH2 0xE94 PUSH1 0xB DUP4 PUSH2 0xE4D JUMP JUMPDEST SWAP2 POP PUSH2 0xE9F DUP3 PUSH2 0xE5E JUMP JUMPDEST PUSH1 0x20 DUP3 ADD SWAP1 POP SWAP2 SWAP1 POP JUMP JUMPDEST PUSH1 0x0 PUSH1 0x20 DUP3 ADD SWAP1 POP DUP2 DUP2 SUB PUSH1 0x0 DUP4 ADD MSTORE PUSH2 0xEC3 DUP2 PUSH2 0xE87 JUMP JUMPDEST SWAP1 POP SWAP2 SWAP1 POP JUMP JUMPDEST PUSH1 0x0 DUP2 PUSH1 0x60 SHL SWAP1 POP SWAP2 SWAP1 POP JUMP JUMPDEST PUSH1 0x0 PUSH2 0xEE2 DUP3 PUSH2 0xECA JUMP JUMPDEST SWAP1 POP SWAP2 SWAP1 POP JUMP JUMPDEST PUSH1 0x0 PUSH2 0xEF4 DUP3 PUSH2 0xED7 JUMP JUMPDEST SWAP1 POP SWAP2 SWAP1 POP JUMP JUMPDEST PUSH2 0xF0C PUSH2 0xF07 DUP3 PUSH2 0xAF5 JUMP JUMPDEST PUSH2 0xEE9 JUMP JUMPDEST DUP3 MSTORE POP POP JUMP JUMPDEST PUSH1 0x0 DUP2 SWAP1 POP SWAP2 SWAP1 POP JUMP JUMPDEST PUSH2 0xF2D PUSH2 0xF28 DUP3 PUSH2 0xB33 JUMP JUMPDEST PUSH2 0xF12 JUMP JUMPDEST DUP3 MSTORE POP POP JUMP JUMPDEST PUSH1 0x0 PUSH2 0xF3F DUP3 DUP8 PUSH2 0xEFB JUMP JUMPDEST PUSH1 0x14 DUP3 ADD SWAP2 POP PUSH2 0xF4F DUP3 DUP7 PUSH2 0xEFB JUMP JUMPDEST PUSH1 0x14 DUP3 ADD SWAP2 POP PUSH2 0xF5F DUP3 DUP6 PUSH2 0xF1C JUMP JUMPDEST PUSH1 0x20 DUP3 ADD SWAP2 POP PUSH2 0xF6F DUP3 DUP5 PUSH2 0xF1C JUMP JUMPDEST PUSH1 0x20 DUP3 ADD SWAP2 POP DUP2 SWAP1 POP SWAP6 SWAP5 POP POP POP POP POP JUMP JUMPDEST PUSH32 0x57726F6E67205369676E61747572652100000000000000000000000000000000 PUSH1 0x0 DUP3 ADD MSTORE POP JUMP JUMPDEST PUSH1 0x0 PUSH2 0xFB7 PUSH1 0x10 DUP4 PUSH2 0xE4D JUMP JUMPDEST SWAP2 POP PUSH2 0xFC2 DUP3 PUSH2 0xF81 JUMP JUMPDEST PUSH1 0x20 DUP3 ADD SWAP1 POP SWAP2 SWAP1 POP JUMP JUMPDEST PUSH1 0x0 PUSH1 0x20 DUP3 ADD SWAP1 POP DUP2 DUP2 SUB PUSH1 0x0 DUP4 ADD MSTORE PUSH2 0xFE6 DUP2 PUSH2 0xFAA JUMP JUMPDEST SWAP1 POP SWAP2 SWAP1 POP JUMP JUMPDEST PUSH32 0x416C7265616479205472616E7366657272656421000000000000000000000000 PUSH1 0x0 DUP3 ADD MSTORE POP JUMP JUMPDEST PUSH1 0x0 PUSH2 0x1023 PUSH1 0x14 DUP4 PUSH2 0xE4D JUMP JUMPDEST SWAP2 POP PUSH2 0x102E DUP3 PUSH2 0xFED JUMP JUMPDEST PUSH1 0x20 DUP3 ADD SWAP1 POP SWAP2 SWAP1 POP JUMP JUMPDEST PUSH1 0x0 PUSH1 0x20 DUP3 ADD SWAP1 POP DUP2 DUP2 SUB PUSH1 0x0 DUP4 ADD MSTORE PUSH2 0x1052 DUP2 PUSH2 0x1016 JUMP JUMPDEST SWAP1 POP SWAP2 SWAP1 POP JUMP JUMPDEST PUSH1 0x0 PUSH1 0x40 DUP3 ADD SWAP1 POP PUSH2 0x106E PUSH1 0x0 DUP4 ADD DUP6 PUSH2 0xD52 JUMP JUMPDEST PUSH2 0x107B PUSH1 0x20 DUP4 ADD DUP5 PUSH2 0xD7C JUMP JUMPDEST SWAP4 SWAP3 POP POP POP JUMP JUMPDEST PUSH32 0x4E487B7100000000000000000000000000000000000000000000000000000000 PUSH1 0x0 MSTORE PUSH1 0x21 PUSH1 0x4 MSTORE PUSH1 0x24 PUSH1 0x0 REVERT JUMPDEST PUSH1 0x0 DUP3 DUP3 MSTORE PUSH1 0x20 DUP3 ADD SWAP1 POP SWAP3 SWAP2 POP POP JUMP JUMPDEST DUP3 DUP2 DUP4 CALLDATACOPY PUSH1 0x0 DUP4 DUP4 ADD MSTORE POP POP POP JUMP JUMPDEST PUSH1 0x0 PUSH1 0x1F NOT PUSH1 0x1F DUP4 ADD AND SWAP1 POP SWAP2 SWAP1 POP JUMP JUMPDEST PUSH1 0x0 PUSH2 0x10EE DUP4 DUP6 PUSH2 0x10B1 JUMP JUMPDEST SWAP4 POP PUSH2 0x10FB DUP4 DUP6 DUP5 PUSH2 0x10C2 JUMP JUMPDEST PUSH2 0x1104 DUP4 PUSH2 0x10D1 JUMP JUMPDEST DUP5 ADD SWAP1 POP SWAP4 SWAP3 POP POP POP JUMP JUMPDEST PUSH1 0x0 PUSH1 0xC0 DUP3 ADD SWAP1 POP PUSH2 0x1124 PUSH1 0x0 DUP4 ADD DUP11 PUSH2 0xD52 JUMP JUMPDEST PUSH2 0x1131 PUSH1 0x20 DUP4 ADD DUP10 PUSH2 0xD52 JUMP JUMPDEST PUSH2 0x113E PUSH1 0x40 DUP4 ADD DUP9 PUSH2 0xD7C JUMP JUMPDEST PUSH2 0x114B PUSH1 0x60 DUP4 ADD DUP8 PUSH2 0xD7C JUMP JUMPDEST PUSH2 0x1158 PUSH1 0x80 DUP4 ADD DUP7 PUSH2 0xD7C JUMP JUMPDEST DUP2 DUP2 SUB PUSH1 0xA0 DUP4 ADD MSTORE PUSH2 0x116B DUP2 DUP5 DUP7 PUSH2 0x10E2 JUMP JUMPDEST SWAP1 POP SWAP9 SWAP8 POP POP POP POP POP POP POP POP JUMP JUMPDEST PUSH32 0x4E487B7100000000000000000000000000000000000000000000000000000000 PUSH1 0x0 MSTORE PUSH1 0x11 PUSH1 0x4 MSTORE PUSH1 0x24 PUSH1 0x0 REVERT JUMPDEST PUSH1 0x0 PUSH2 0x11B3 DUP3 PUSH2 0xB33 JUMP JUMPDEST SWAP2 POP PUSH32 0xFFFFFFFFFFFFFFFFFFFFFFFFFFFFFFFFFFFFFFFFFFFFFFFFFFFFFFFFFFFFFFFF DUP3 SUB PUSH2 0x11E5 JUMPI PUSH2 0x11E4 PUSH2 0x1179 JUMP JUMPDEST JUMPDEST PUSH1 0x1 DUP3 ADD SWAP1 POP SWAP2 SWAP1 POP JUMP JUMPDEST PUSH32 0x4F776E61626C653A206E6577206F776E657220697320746865207A65726F2061 PUSH1 0x0 DUP3 ADD MSTORE PUSH32 0x6464726573730000000000000000000000000000000000000000000000000000 PUSH1 0x20 DUP3 ADD MSTORE POP JUMP JUMPDEST PUSH1 0x0 PUSH2 0x124C PUSH1 0x26 DUP4 PUSH2 0xE4D JUMP JUMPDEST SWAP2 POP PUSH2 0x1257 DUP3 PUSH2 0x11F0 JUMP JUMPDEST PUSH1 0x40 DUP3 ADD SWAP1 POP SWAP2 SWAP1 POP JUMP JUMPDEST PUSH1 0x0 PUSH1 0x20 DUP3 ADD SWAP1 POP DUP2 DUP2 SUB PUSH1 0x0 DUP4 ADD MSTORE PUSH2 0x127B DUP2 PUSH2 0x123F JUMP JUMPDEST SWAP1 POP SWAP2 SWAP1 POP JUMP JUMPDEST PUSH1 0x0 DUP2 SWAP1 POP SWAP3 SWAP2 POP POP JUMP JUMPDEST PUSH32 0x19457468657265756D205369676E6564204D6573736167653A0A333200000000 PUSH1 0x0 DUP3 ADD MSTORE POP JUMP JUMPDEST PUSH1 0x0 PUSH2 0x12C3 PUSH1 0x1C DUP4 PUSH2 0x1282 JUMP JUMPDEST SWAP2 POP PUSH2 0x12CE DUP3 PUSH2 0x128D JUMP JUMPDEST PUSH1 0x1C DUP3 ADD SWAP1 POP SWAP2 SWAP1 POP JUMP JUMPDEST PUSH1 0x0 DUP2 SWAP1 POP SWAP2 SWAP1 POP JUMP JUMPDEST PUSH1 0x0 DUP2 SWAP1 POP SWAP2 SWAP1 POP JUMP JUMPDEST PUSH2 0x12FE PUSH2 0x12F9 DUP3 PUSH2 0x12D9 JUMP JUMPDEST PUSH2 0x12E3 JUMP JUMPDEST DUP3 MSTORE POP POP JUMP JUMPDEST PUSH1 0x0 PUSH2 0x130F DUP3 PUSH2 0x12B6 JUMP JUMPDEST SWAP2 POP PUSH2 0x131B DUP3 DUP5 PUSH2 0x12ED JUMP JUMPDEST PUSH1 0x20 DUP3 ADD SWAP2 POP DUP2 SWAP1 POP SWAP3 SWAP2 POP POP JUMP JUMPDEST PUSH2 0x1333 DUP2 PUSH2 0x12D9 JUMP JUMPDEST DUP3 MSTORE POP POP JUMP JUMPDEST PUSH1 0x0 PUSH1 0xFF DUP3 AND SWAP1 POP SWAP2 SWAP1 POP JUMP JUMPDEST PUSH2 0x134F DUP2 PUSH2 0x1339 JUMP JUMPDEST DUP3 MSTORE POP POP JUMP JUMPDEST PUSH1 0x0 PUSH1 0x80 DUP3 ADD SWAP1 POP PUSH2 0x136A PUSH1 0x0 DUP4 ADD DUP8 PUSH2 0x132A JUMP JUMPDEST PUSH2 0x1377 PUSH1 0x20 DUP4 ADD DUP7 PUSH2 0x1346 JUMP JUMPDEST PUSH2 0x1384 PUSH1 0x40 DUP4 ADD DUP6 PUSH2 0x132A JUMP JUMPDEST PUSH2 0x1391 PUSH1 0x60 DUP4 ADD DUP5 PUSH2 0x132A JUMP JUMPDEST SWAP6 SWAP5 POP POP POP POP POP JUMP JUMPDEST PUSH32 0x4F776E61626C653A2063616C6C6572206973206E6F7420746865206F776E6572 PUSH1 0x0 DUP3 ADD MSTORE POP JUMP JUMPDEST PUSH1 0x0 PUSH2 0x13D0 PUSH1 0x20 DUP4 PUSH2 0xE4D JUMP JUMPDEST SWAP2 POP PUSH2 0x13DB DUP3 PUSH2 0x139A JUMP JUMPDEST PUSH1 0x20 DUP3 ADD SWAP1 POP SWAP2 SWAP1 POP JUMP JUMPDEST PUSH1 0x0 PUSH1 0x20 DUP3 ADD SWAP1 POP DUP2 DUP2 SUB PUSH1 0x0 DUP4 ADD MSTORE PUSH2 0x13FF DUP2 PUSH2 0x13C3 JUMP JUMPDEST SWAP1 POP SWAP2 SWAP1 POP JUMP INVALID LOG2 PUSH5 0x6970667358 0x22 SLT KECCAK256 GAS 0xBE 0xBF PUSH9 0xB1EBDBDE2262052832 0x4D ORIGIN 0xD6 0xE0 0xB8 DELEGATECALL 0x21 0xEC 0xA6 MLOAD PUSH23 0x910E23E167531B7664736F6C634300081A003300000000 "
				},
				"gasEstimates": {
					"creation": {
						"codeDepositCost": "1036000",
						"executionCost": "infinite",
						"totalCost": "infinite"
					},
					"external": {
						"admin()": "2580",
						"burn(uint256,uint256,bytes)": "infinite",
						"mint(address,address,uint256,uint256,bytes)": "infinite",
						"nonce()": "2451",
						"owner()": "2522",
						"processedNonces(address,uint256)": "3132",
						"renounceOwnership()": "30421",
						"token()": "infinite",
						"transferOwnership(address)": "30788"
					}
				},
				"methodIdentifiers": {
					"admin()": "f851a440",
					"burn(uint256,uint256,bytes)": "80a5a371",
					"mint(address,address,uint256,uint256,bytes)": "52555702",
					"nonce()": "affed0e0",
					"owner()": "8da5cb5b",
					"processedNonces(address,uint256)": "7cc70240",
					"renounceOwnership()": "715018a6",
					"token()": "fc0c546a",
					"transferOwnership(address)": "f2fde38b"
				}
			},
			"storageLayout": {
				"storage": [
					{
						"astId": 7,
						"contract": "contracts/SepoliaPortal.sol:SepoliaPortal",
						"label": "_owner",
						"offset": 0,
						"slot": "0",
						"type": "t_address"
					},
					{
						"astId": 165,
						"contract": "contracts/SepoliaPortal.sol:SepoliaPortal",
						"label": "admin",
						"offset": 0,
						"slot": "1",
						"type": "t_address"
					},
					{
						"astId": 168,
						"contract": "contracts/SepoliaPortal.sol:SepoliaPortal",
						"label": "token",
						"offset": 0,
						"slot": "2",
						"type": "t_contract(ICrossToken)161"
					},
					{
						"astId": 170,
						"contract": "contracts/SepoliaPortal.sol:SepoliaPortal",
						"label": "nonce",
						"offset": 0,
						"slot": "3",
						"type": "t_uint256"
					},
					{
						"astId": 176,
						"contract": "contracts/SepoliaPortal.sol:SepoliaPortal",
						"label": "processedNonces",
						"offset": 0,
						"slot": "4",
						"type": "t_mapping(t_address,t_mapping(t_uint256,t_bool))"
					}
				],
				"types": {
					"t_address": {
						"encoding": "inplace",
						"label": "address",
						"numberOfBytes": "20"
					},
					"t_bool": {
						"encoding": "inplace",
						"label": "bool",
						"numberOfBytes": "1"
					},
					"t_contract(ICrossToken)161": {
						"encoding": "inplace",
						"label": "contract ICrossToken",
						"numberOfBytes": "20"
					},
					"t_mapping(t_address,t_mapping(t_uint256,t_bool))": {
						"encoding": "mapping",
						"key": "t_address",
						"label": "mapping(address => mapping(uint256 => bool))",
						"numberOfBytes": "32",
						"value": "t_mapping(t_uint256,t_bool)"
					},
					"t_mapping(t_uint256,t_bool)": {
						"encoding": "mapping",
						"key": "t_uint256",
						"label": "mapping(uint256 => bool)",
						"numberOfBytes": "32",
						"value": "t_bool"
					},
					"t_uint256": {
						"encoding": "inplace",
						"label": "uint256",
						"numberOfBytes": "32"
					}
				}
			},
			"userdoc": {
				"kind": "user",
				"methods": {},
				"version": 1
			}
		}
	}
}